{
  "_format": "hh-sol-artifact-1",
  "contractName": "RWASingleton",
  "sourceName": "contracts/RWASingleton.sol",
  "abi": [
    {
      "inputs": [
        {
          "internalType": "string",
          "name": "name",
          "type": "string"
        },
        {
          "internalType": "string",
          "name": "symbol",
          "type": "string"
        },
        {
          "internalType": "address",
          "name": "_feeRecipient",
          "type": "address"
        }
      ],
      "stateMutability": "nonpayable",
      "type": "constructor"
    },
    {
      "inputs": [
        {
          "internalType": "address",
          "name": "sender",
          "type": "address"
        },
        {
          "internalType": "uint256",
          "name": "tokenId",
          "type": "uint256"
        },
        {
          "internalType": "address",
          "name": "owner",
          "type": "address"
        }
      ],
      "name": "ERC721IncorrectOwner",
      "type": "error"
    },
    {
      "inputs": [
        {
          "internalType": "address",
          "name": "operator",
          "type": "address"
        },
        {
          "internalType": "uint256",
          "name": "tokenId",
          "type": "uint256"
        }
      ],
      "name": "ERC721InsufficientApproval",
      "type": "error"
    },
    {
      "inputs": [
        {
          "internalType": "address",
          "name": "approver",
          "type": "address"
        }
      ],
      "name": "ERC721InvalidApprover",
      "type": "error"
    },
    {
      "inputs": [
        {
          "internalType": "address",
          "name": "operator",
          "type": "address"
        }
      ],
      "name": "ERC721InvalidOperator",
      "type": "error"
    },
    {
      "inputs": [
        {
          "internalType": "address",
          "name": "owner",
          "type": "address"
        }
      ],
      "name": "ERC721InvalidOwner",
      "type": "error"
    },
    {
      "inputs": [
        {
          "internalType": "address",
          "name": "receiver",
          "type": "address"
        }
      ],
      "name": "ERC721InvalidReceiver",
      "type": "error"
    },
    {
      "inputs": [
        {
          "internalType": "address",
          "name": "sender",
          "type": "address"
        }
      ],
      "name": "ERC721InvalidSender",
      "type": "error"
    },
    {
      "inputs": [
        {
          "internalType": "uint256",
          "name": "tokenId",
          "type": "uint256"
        }
      ],
      "name": "ERC721NonexistentToken",
      "type": "error"
    },
    {
      "inputs": [
        {
          "internalType": "address",
          "name": "owner",
          "type": "address"
        }
      ],
      "name": "OwnableInvalidOwner",
      "type": "error"
    },
    {
      "inputs": [
        {
          "internalType": "address",
          "name": "account",
          "type": "address"
        }
      ],
      "name": "OwnableUnauthorizedAccount",
      "type": "error"
    },
    {
      "inputs": [],
      "name": "ReentrancyGuardReentrantCall",
      "type": "error"
    },
    {
      "anonymous": false,
      "inputs": [
        {
          "indexed": true,
          "internalType": "address",
          "name": "owner",
          "type": "address"
        },
        {
          "indexed": true,
          "internalType": "address",
          "name": "approved",
          "type": "address"
        },
        {
          "indexed": true,
          "internalType": "uint256",
          "name": "tokenId",
          "type": "uint256"
        }
      ],
      "name": "Approval",
      "type": "event"
    },
    {
      "anonymous": false,
      "inputs": [
        {
          "indexed": true,
          "internalType": "address",
          "name": "owner",
          "type": "address"
        },
        {
          "indexed": true,
          "internalType": "address",
          "name": "operator",
          "type": "address"
        },
        {
          "indexed": false,
          "internalType": "bool",
          "name": "approved",
          "type": "bool"
        }
      ],
      "name": "ApprovalForAll",
      "type": "event"
    },
    {
      "anonymous": false,
      "inputs": [
        {
          "indexed": true,
          "internalType": "uint256",
          "name": "tokenId",
          "type": "uint256"
        },
        {
          "indexed": true,
          "internalType": "address",
          "name": "seller",
          "type": "address"
        },
        {
          "indexed": false,
          "internalType": "uint256",
          "name": "timestamp",
          "type": "uint256"
        }
      ],
      "name": "AuctionCanceled",
      "type": "event"
    },
    {
      "anonymous": false,
      "inputs": [
        {
          "indexed": true,
          "internalType": "uint256",
          "name": "tokenId",
          "type": "uint256"
        },
        {
          "indexed": true,
          "internalType": "address",
          "name": "buyer",
          "type": "address"
        },
        {
          "indexed": true,
          "internalType": "address",
          "name": "seller",
          "type": "address"
        },
        {
          "indexed": false,
          "internalType": "uint256",
          "name": "price",
          "type": "uint256"
        },
        {
          "indexed": false,
          "internalType": "uint256",
          "name": "timestamp",
          "type": "uint256"
        }
      ],
      "name": "AuctionPurchased",
      "type": "event"
    },
    {
      "anonymous": false,
      "inputs": [
        {
          "indexed": false,
          "internalType": "uint256",
          "name": "_fromTokenId",
          "type": "uint256"
        },
        {
          "indexed": false,
          "internalType": "uint256",
          "name": "_toTokenId",
          "type": "uint256"
        }
      ],
      "name": "BatchMetadataUpdate",
      "type": "event"
    },
    {
      "anonymous": false,
      "inputs": [
        {
          "indexed": false,
          "internalType": "address",
          "name": "newRecipient",
          "type": "address"
        }
      ],
      "name": "FeeRecipientUpdated",
      "type": "event"
    },
    {
      "anonymous": false,
      "inputs": [
        {
          "indexed": false,
          "internalType": "uint256",
          "name": "newFee",
          "type": "uint256"
        }
      ],
      "name": "ListingFeeUpdated",
      "type": "event"
    },
    {
      "anonymous": false,
      "inputs": [
        {
          "indexed": false,
          "internalType": "uint256",
          "name": "_tokenId",
          "type": "uint256"
        }
      ],
      "name": "MetadataUpdate",
      "type": "event"
    },
    {
      "anonymous": false,
      "inputs": [
        {
          "indexed": true,
          "internalType": "address",
          "name": "previousOwner",
          "type": "address"
        },
        {
          "indexed": true,
          "internalType": "address",
          "name": "newOwner",
          "type": "address"
        }
      ],
      "name": "OwnershipTransferred",
      "type": "event"
    },
    {
      "anonymous": false,
      "inputs": [
        {
          "indexed": true,
          "internalType": "uint256",
          "name": "tokenId",
          "type": "uint256"
        },
        {
          "indexed": true,
          "internalType": "address",
          "name": "seller",
          "type": "address"
        },
        {
          "indexed": false,
          "internalType": "string",
          "name": "productName",
          "type": "string"
        },
        {
          "indexed": false,
          "internalType": "uint256",
          "name": "startingPrice",
          "type": "uint256"
        },
        {
          "indexed": false,
          "internalType": "uint256",
          "name": "minimumPrice",
          "type": "uint256"
        },
        {
          "indexed": false,
          "internalType": "uint256",
          "name": "startTime",
          "type": "uint256"
        },
        {
          "indexed": false,
          "internalType": "uint256",
          "name": "endTime",
          "type": "uint256"
        }
      ],
      "name": "RWAListed",
      "type": "event"
    },
    {
      "anonymous": false,
      "inputs": [
        {
          "indexed": true,
          "internalType": "address",
          "name": "from",
          "type": "address"
        },
        {
          "indexed": true,
          "internalType": "address",
          "name": "to",
          "type": "address"
        },
        {
          "indexed": true,
          "internalType": "uint256",
          "name": "tokenId",
          "type": "uint256"
        }
      ],
      "name": "Transfer",
      "type": "event"
    },
    {
      "inputs": [],
      "name": "AUCTION_DURATION",
      "outputs": [
        {
          "internalType": "uint256",
          "name": "",
          "type": "uint256"
        }
      ],
      "stateMutability": "view",
      "type": "function"
    },
    {
      "inputs": [],
      "name": "PRICE_REDUCTION_FACTOR",
      "outputs": [
        {
          "internalType": "uint256",
          "name": "",
          "type": "uint256"
        }
      ],
      "stateMutability": "view",
      "type": "function"
    },
    {
      "inputs": [
        {
          "internalType": "uint256",
          "name": "",
          "type": "uint256"
        }
      ],
      "name": "activeAuctions",
      "outputs": [
        {
          "internalType": "uint256",
          "name": "",
          "type": "uint256"
        }
      ],
      "stateMutability": "view",
      "type": "function"
    },
    {
      "inputs": [
        {
          "internalType": "uint256",
          "name": "",
          "type": "uint256"
        }
      ],
      "name": "allTokenIds",
      "outputs": [
        {
          "internalType": "uint256",
          "name": "",
          "type": "uint256"
        }
      ],
      "stateMutability": "view",
      "type": "function"
    },
    {
      "inputs": [
        {
          "internalType": "address",
          "name": "to",
          "type": "address"
        },
        {
          "internalType": "uint256",
          "name": "tokenId",
          "type": "uint256"
        }
      ],
      "name": "approve",
      "outputs": [],
      "stateMutability": "nonpayable",
      "type": "function"
    },
    {
      "inputs": [
        {
          "internalType": "uint256",
          "name": "",
          "type": "uint256"
        }
      ],
      "name": "auctions",
      "outputs": [
        {
          "internalType": "uint256",
          "name": "startingPrice",
          "type": "uint256"
        },
        {
          "internalType": "uint256",
          "name": "minimumPrice",
          "type": "uint256"
        },
        {
          "internalType": "uint256",
          "name": "startTime",
          "type": "uint256"
        },
        {
          "internalType": "uint256",
          "name": "endTime",
          "type": "uint256"
        },
        {
          "internalType": "address",
          "name": "seller",
          "type": "address"
        },
        {
          "internalType": "bool",
          "name": "isActive",
          "type": "bool"
        },
        {
          "internalType": "bool",
          "name": "hasEnded",
          "type": "bool"
        },
        {
          "internalType": "uint256",
          "name": "createdAt",
          "type": "uint256"
        }
      ],
      "stateMutability": "view",
      "type": "function"
    },
    {
      "inputs": [
        {
          "internalType": "address",
          "name": "owner",
          "type": "address"
        }
      ],
      "name": "balanceOf",
      "outputs": [
        {
          "internalType": "uint256",
          "name": "",
          "type": "uint256"
        }
      ],
      "stateMutability": "view",
      "type": "function"
    },
    {
      "inputs": [
        {
          "internalType": "uint256",
          "name": "tokenId",
          "type": "uint256"
        }
      ],
      "name": "cancelAuction",
      "outputs": [],
      "stateMutability": "nonpayable",
      "type": "function"
    },
    {
      "inputs": [
        {
          "internalType": "uint256",
          "name": "tokenId",
          "type": "uint256"
        }
      ],
      "name": "emergencyEndAuction",
      "outputs": [],
      "stateMutability": "nonpayable",
      "type": "function"
    },
    {
      "inputs": [],
      "name": "emergencyWithdraw",
      "outputs": [],
      "stateMutability": "nonpayable",
      "type": "function"
    },
    {
      "inputs": [],
      "name": "feeRecipient",
      "outputs": [
        {
          "internalType": "address",
          "name": "",
          "type": "address"
        }
      ],
      "stateMutability": "view",
      "type": "function"
    },
    {
      "inputs": [],
      "name": "getActiveAuctions",
      "outputs": [
        {
          "internalType": "uint256[]",
          "name": "",
          "type": "uint256[]"
        }
      ],
      "stateMutability": "view",
      "type": "function"
    },
    {
      "inputs": [
        {
          "internalType": "uint256",
          "name": "offset",
          "type": "uint256"
        },
        {
          "internalType": "uint256",
          "name": "limit",
          "type": "uint256"
        }
      ],
      "name": "getActiveAuctionsPaginated",
      "outputs": [
        {
          "internalType": "uint256[]",
          "name": "",
          "type": "uint256[]"
        }
      ],
      "stateMutability": "view",
      "type": "function"
    },
    {
      "inputs": [],
      "name": "getAllTokens",
      "outputs": [
        {
          "internalType": "uint256[]",
          "name": "",
          "type": "uint256[]"
        }
      ],
      "stateMutability": "view",
      "type": "function"
    },
    {
      "inputs": [
        {
          "internalType": "uint256",
          "name": "tokenId",
          "type": "uint256"
        }
      ],
      "name": "getApproved",
      "outputs": [
        {
          "internalType": "address",
          "name": "",
          "type": "address"
        }
      ],
      "stateMutability": "view",
      "type": "function"
    },
    {
      "inputs": [
        {
          "internalType": "uint256",
          "name": "tokenId",
          "type": "uint256"
        }
      ],
      "name": "getAuctionInfo",
      "outputs": [
        {
          "internalType": "uint256",
          "name": "currentPrice",
          "type": "uint256"
        },
        {
          "internalType": "uint256",
          "name": "startingPrice",
          "type": "uint256"
        },
        {
          "internalType": "uint256",
          "name": "minimumPrice",
          "type": "uint256"
        },
        {
          "internalType": "uint256",
          "name": "startTime",
          "type": "uint256"
        },
        {
          "internalType": "uint256",
          "name": "endTime",
          "type": "uint256"
        },
        {
          "internalType": "address",
          "name": "seller",
          "type": "address"
        },
        {
          "internalType": "bool",
          "name": "isActive",
          "type": "bool"
        },
        {
          "internalType": "bool",
          "name": "hasEnded",
          "type": "bool"
        },
        {
          "internalType": "uint256",
          "name": "timeRemaining",
          "type": "uint256"
        }
      ],
      "stateMutability": "view",
      "type": "function"
    },
    {
      "inputs": [
        {
          "internalType": "uint256",
          "name": "tokenId",
          "type": "uint256"
        }
      ],
      "name": "getCertificateHashes",
      "outputs": [
        {
          "internalType": "bytes32[]",
          "name": "",
          "type": "bytes32[]"
        }
      ],
      "stateMutability": "view",
      "type": "function"
    },
    {
      "inputs": [
        {
          "internalType": "uint256",
          "name": "tokenId",
          "type": "uint256"
        }
      ],
      "name": "getCurrentPrice",
      "outputs": [
        {
          "internalType": "uint256",
          "name": "",
          "type": "uint256"
        }
      ],
      "stateMutability": "view",
      "type": "function"
    },
    {
      "inputs": [
        {
          "internalType": "uint256",
          "name": "tokenId",
          "type": "uint256"
        }
      ],
      "name": "getRWAMetadata",
      "outputs": [
        {
          "components": [
            {
              "internalType": "string",
              "name": "productName",
              "type": "string"
            },
            {
              "internalType": "string",
              "name": "description",
              "type": "string"
            },
            {
              "internalType": "string",
              "name": "sellerDetails",
              "type": "string"
            },
            {
              "internalType": "string",
              "name": "imageURI",
              "type": "string"
            },
            {
              "internalType": "bytes32[]",
              "name": "certificateHashes",
              "type": "bytes32[]"
            },
            {
              "internalType": "string",
              "name": "refundPolicy",
              "type": "string"
            },
            {
              "internalType": "string",
              "name": "termsAndConditions",
              "type": "string"
            },
            {
              "internalType": "uint256",
              "name": "createdAt",
              "type": "uint256"
            },
            {
              "internalType": "address",
              "name": "seller",
              "type": "address"
            }
          ],
          "internalType": "struct RWASingleton.RWAMetadata",
          "name": "",
          "type": "tuple"
        }
      ],
      "stateMutability": "view",
      "type": "function"
    },
    {
      "inputs": [
        {
          "internalType": "address",
          "name": "seller",
          "type": "address"
        }
      ],
      "name": "getSellerTokens",
      "outputs": [
        {
          "internalType": "uint256[]",
          "name": "",
          "type": "uint256[]"
        }
      ],
      "stateMutability": "view",
      "type": "function"
    },
    {
      "inputs": [],
      "name": "getTotalTokens",
      "outputs": [
        {
          "internalType": "uint256",
          "name": "",
          "type": "uint256"
        }
      ],
      "stateMutability": "view",
      "type": "function"
    },
    {
      "inputs": [
        {
          "internalType": "uint256",
          "name": "tokenId",
          "type": "uint256"
        }
      ],
      "name": "hasCertificates",
      "outputs": [
        {
          "internalType": "bool",
          "name": "",
          "type": "bool"
        }
      ],
      "stateMutability": "view",
      "type": "function"
    },
    {
      "inputs": [
        {
          "internalType": "address",
          "name": "owner",
          "type": "address"
        },
        {
          "internalType": "address",
          "name": "operator",
          "type": "address"
        }
      ],
      "name": "isApprovedForAll",
      "outputs": [
        {
          "internalType": "bool",
          "name": "",
          "type": "bool"
        }
      ],
      "stateMutability": "view",
      "type": "function"
    },
    {
      "inputs": [
        {
          "internalType": "string",
          "name": "productName",
          "type": "string"
        },
        {
          "internalType": "string",
          "name": "description",
          "type": "string"
        },
        {
          "internalType": "string",
          "name": "sellerDetails",
          "type": "string"
        },
        {
          "internalType": "string",
          "name": "imageURI",
          "type": "string"
        },
        {
          "internalType": "bytes32[]",
          "name": "certificateHashes",
          "type": "bytes32[]"
        },
        {
          "internalType": "string",
          "name": "refundPolicy",
          "type": "string"
        },
        {
          "internalType": "string",
          "name": "termsAndConditions",
          "type": "string"
        },
        {
          "internalType": "string",
          "name": "tokenURI",
          "type": "string"
        },
        {
          "internalType": "uint256",
          "name": "startingPrice",
          "type": "uint256"
        }
      ],
      "name": "listRWA",
      "outputs": [
        {
          "internalType": "uint256",
          "name": "tokenId",
          "type": "uint256"
        }
      ],
      "stateMutability": "payable",
      "type": "function"
    },
    {
      "inputs": [],
      "name": "listingFee",
      "outputs": [
        {
          "internalType": "uint256",
          "name": "",
          "type": "uint256"
        }
      ],
      "stateMutability": "view",
      "type": "function"
    },
    {
      "inputs": [],
      "name": "name",
      "outputs": [
        {
          "internalType": "string",
          "name": "",
          "type": "string"
        }
      ],
      "stateMutability": "view",
      "type": "function"
    },
    {
      "inputs": [],
      "name": "owner",
      "outputs": [
        {
          "internalType": "address",
          "name": "",
          "type": "address"
        }
      ],
      "stateMutability": "view",
      "type": "function"
    },
    {
      "inputs": [
        {
          "internalType": "uint256",
          "name": "tokenId",
          "type": "uint256"
        }
      ],
      "name": "ownerOf",
      "outputs": [
        {
          "internalType": "address",
          "name": "",
          "type": "address"
        }
      ],
      "stateMutability": "view",
      "type": "function"
    },
    {
      "inputs": [
        {
          "internalType": "uint256",
          "name": "tokenId",
          "type": "uint256"
        }
      ],
      "name": "purchase",
      "outputs": [],
      "stateMutability": "payable",
      "type": "function"
    },
    {
      "inputs": [],
      "name": "renounceOwnership",
      "outputs": [],
      "stateMutability": "nonpayable",
      "type": "function"
    },
    {
      "inputs": [
        {
          "internalType": "uint256",
          "name": "",
          "type": "uint256"
        }
      ],
      "name": "rwaMetadata",
      "outputs": [
        {
          "internalType": "string",
          "name": "productName",
          "type": "string"
        },
        {
          "internalType": "string",
          "name": "description",
          "type": "string"
        },
        {
          "internalType": "string",
          "name": "sellerDetails",
          "type": "string"
        },
        {
          "internalType": "string",
          "name": "imageURI",
          "type": "string"
        },
        {
          "internalType": "string",
          "name": "refundPolicy",
          "type": "string"
        },
        {
          "internalType": "string",
          "name": "termsAndConditions",
          "type": "string"
        },
        {
          "internalType": "uint256",
          "name": "createdAt",
          "type": "uint256"
        },
        {
          "internalType": "address",
          "name": "seller",
          "type": "address"
        }
      ],
      "stateMutability": "view",
      "type": "function"
    },
    {
      "inputs": [
        {
          "internalType": "address",
          "name": "from",
          "type": "address"
        },
        {
          "internalType": "address",
          "name": "to",
          "type": "address"
        },
        {
          "internalType": "uint256",
          "name": "tokenId",
          "type": "uint256"
        }
      ],
      "name": "safeTransferFrom",
      "outputs": [],
      "stateMutability": "nonpayable",
      "type": "function"
    },
    {
      "inputs": [
        {
          "internalType": "address",
          "name": "from",
          "type": "address"
        },
        {
          "internalType": "address",
          "name": "to",
          "type": "address"
        },
        {
          "internalType": "uint256",
          "name": "tokenId",
          "type": "uint256"
        },
        {
          "internalType": "bytes",
          "name": "data",
          "type": "bytes"
        }
      ],
      "name": "safeTransferFrom",
      "outputs": [],
      "stateMutability": "nonpayable",
      "type": "function"
    },
    {
      "inputs": [
        {
          "internalType": "address",
          "name": "",
          "type": "address"
        },
        {
          "internalType": "uint256",
          "name": "",
          "type": "uint256"
        }
      ],
      "name": "sellerTokens",
      "outputs": [
        {
          "internalType": "uint256",
          "name": "",
          "type": "uint256"
        }
      ],
      "stateMutability": "view",
      "type": "function"
    },
    {
      "inputs": [
        {
          "internalType": "address",
          "name": "operator",
          "type": "address"
        },
        {
          "internalType": "bool",
          "name": "approved",
          "type": "bool"
        }
      ],
      "name": "setApprovalForAll",
      "outputs": [],
      "stateMutability": "nonpayable",
      "type": "function"
    },
    {
      "inputs": [
        {
          "internalType": "bytes4",
          "name": "interfaceId",
          "type": "bytes4"
        }
      ],
      "name": "supportsInterface",
      "outputs": [
        {
          "internalType": "bool",
          "name": "",
          "type": "bool"
        }
      ],
      "stateMutability": "view",
      "type": "function"
    },
    {
      "inputs": [],
      "name": "symbol",
      "outputs": [
        {
          "internalType": "string",
          "name": "",
          "type": "string"
        }
      ],
      "stateMutability": "view",
      "type": "function"
    },
    {
      "inputs": [
        {
          "internalType": "uint256",
          "name": "tokenId",
          "type": "uint256"
        }
      ],
      "name": "tokenURI",
      "outputs": [
        {
          "internalType": "string",
          "name": "",
          "type": "string"
        }
      ],
      "stateMutability": "view",
      "type": "function"
    },
    {
      "inputs": [
        {
          "internalType": "address",
          "name": "from",
          "type": "address"
        },
        {
          "internalType": "address",
          "name": "to",
          "type": "address"
        },
        {
          "internalType": "uint256",
          "name": "tokenId",
          "type": "uint256"
        }
      ],
      "name": "transferFrom",
      "outputs": [],
      "stateMutability": "nonpayable",
      "type": "function"
    },
    {
      "inputs": [
        {
          "internalType": "address",
          "name": "newOwner",
          "type": "address"
        }
      ],
      "name": "transferOwnership",
      "outputs": [],
      "stateMutability": "nonpayable",
      "type": "function"
    },
    {
      "inputs": [
        {
          "internalType": "uint256",
          "name": "tokenId",
          "type": "uint256"
        },
        {
          "internalType": "bytes32[]",
          "name": "newHashes",
          "type": "bytes32[]"
        }
      ],
      "name": "updateCertificateHashes",
      "outputs": [],
      "stateMutability": "nonpayable",
      "type": "function"
    },
    {
      "inputs": [
        {
          "internalType": "address",
          "name": "newRecipient",
          "type": "address"
        }
      ],
      "name": "updateFeeRecipient",
      "outputs": [],
      "stateMutability": "nonpayable",
      "type": "function"
    },
    {
      "inputs": [
        {
          "internalType": "uint256",
          "name": "newFee",
          "type": "uint256"
        }
      ],
      "name": "updateListingFee",
      "outputs": [],
      "stateMutability": "nonpayable",
      "type": "function"
    },
    {
      "inputs": [
        {
          "internalType": "uint256",
          "name": "tokenId",
          "type": "uint256"
        },
        {
          "internalType": "bytes32",
          "name": "hash",
          "type": "bytes32"
        }
      ],
      "name": "verifyCertificateHash",
      "outputs": [
        {
          "internalType": "bool",
          "name": "",
          "type": "bool"
        }
      ],
      "stateMutability": "view",
      "type": "function"
    }
  ],
  "bytecode": "0x6080604052346103c4576127d180380380610019816103c9565b9283398101906060818303126103c45780516001600160401b0381116103c457826100459183016103ee565b60208201519092906001600160401b0381116103c4576040916100699184016103ee565b9101516001600160a01b038116908190036103c45782516001600160401b0381116102cf57600054600181811c911680156103ba575b60208210146102af57601f8111610356575b506020601f82116001146102f057819293946000926102e5575b50508160011b916000199060031b1c1916176000555b81516001600160401b0381116102cf57600154600181811c911680156102c5575b60208210146102af57601f811161024a575b50602092601f82116001146101e557928192936000926101da575b50508160011b916000199060031b1c1916176001555b33156101c45760078054336001600160a01b0319821681179092556040519291906001600160a01b03167f8be0079c531659141344cd1fd0a4f28419497f9722a3daafe3b4186f6b6457e0600080a3600160085566038d7ea4c68000600d55600e80546001600160a01b031916919091179055612377908161045a8239f35b631e4fbdf760e01b600052600060045260246000fd5b01519050388061012f565b601f198216936001600052806000209160005b8681106102325750836001959610610219575b505050811b01600155610145565b015160001960f88460031b161c1916905538808061020b565b919260206001819286850151815501940192016101f8565b60016000527fb10e2d527612073b26eecdfd717e6a320cf44b4afac2b0732d9fcbe2b7fa0cf6601f830160051c810191602084106102a5575b601f0160051c01905b8181106102995750610114565b6000815560010161028c565b9091508190610283565b634e487b7160e01b600052602260045260246000fd5b90607f1690610102565b634e487b7160e01b600052604160045260246000fd5b0151905038806100cb565b601f1982169060008052806000209160005b81811061033e57509583600195969710610325575b505050811b016000556100e1565b015160001960f88460031b161c19169055388080610317565b9192602060018192868b015181550194019201610302565b600080527f290decd9548b62a8d60345a988386fc84ba6bc95484008f6362f93160ef3e563601f830160051c810191602084106103b0575b601f0160051c01905b8181106103a457506100b1565b60008155600101610397565b909150819061038e565b90607f169061009f565b600080fd5b6040519190601f01601f191682016001600160401b038111838210176102cf57604052565b81601f820112156103c4578051906001600160401b0382116102cf5761041d601f8301601f19166020016103c9565b92828452602083830101116103c45760005b82811061044457505060206000918301015290565b8060208092840101518282870101520161042f56fe608080604052600436101561001357600080fd5b60003560e01c90816301ffc9a714611ae75750806306fdde0314611a2c578063081812fc146119ee578063095ea7b31461190857806317021cc31461188357806323b872dd146118505780632a5c792a146117d95780633f9fc7681461176a57806342842e0e1461172e578063469048401461170557806352860b34146116e95780635664fce6146115ed578063571a26a0146115665780635ba2fd941461134e5780636352211e1461131e5780636a1b7ecc146113005780636f312e641461120857806370a08231146111b2578063715018a61461115557806377cd22e3146110de578063790d8596146110a65780637d07b2d214611054578063899460eb146110295780638da5cb5b1461100057806395d89b4114610f0957806396b5a75514610e855780639c08deb714610d58578063a22cb46514610cb7578063a271e52514610c99578063b88d4fde14610c3d578063c0826c8114610b3f578063c45e7bc814610af2578063c55d0f5614610acc578063c87b56dd14610a99578063cf44b5d514610a12578063db2e21bc1461092f578063e7d71618146106fd578063e985e9c5146106a2578063efef39a1146104e2578063f08b82e6146104c4578063f160d36914610411578063f2fde38b14610387578063f79d91ae1461033b5763fc3fc4ed1461020357600080fd5b346103365760203660031901126103365761012060043580600052600b60205261023e60018060a01b03600460406000200154161515611fc8565b80600052600b6020526040600020906040519161025a83611c98565b805483526001810154916020840192835260028201549160408501928352600381015491606086019283526004820154926102cb608088019260018060a01b0386168452600560a08a019560ff8860a01c161515875260ff60c08c019860a81c1615158852015460e08a01526120b5565b96519551945190519160018060a01b0390511692511515935115159442831160001461032e576102fb42846120a8565b965b604051988952602089015260408801526060870152608086015260a085015260c084015260e0830152610100820152f35b6000966102fd565b600080fd5b34610336576020366003190112610336577f5fb4654f1efe30c6141eaa6855ffcb27e0b361d899b05e21b1a4d0b3e71e14db602060043561037a61220e565b80600d55604051908152a1005b34610336576020366003190112610336576103a0611bab565b6103a861220e565b6001600160a01b031680156103fb57600780546001600160a01b0319811683179091556001600160a01b03167f8be0079c531659141344cd1fd0a4f28419497f9722a3daafe3b4186f6b6457e0600080a3005b631e4fbdf760e01b600052600060045260246000fd5b346103365760203660031901126103365761042a611bab565b61043261220e565b6001600160a01b03168015610487576020817f7a7b5a0a132f9e0581eb8527f66eae9ee89c2a3e79d4ac7e41a1f1f4d48a7fc2926bffffffffffffffffffffffff60a01b600e541617600e55604051908152a1005b60405162461bcd60e51b8152602060048201526015602482015274125b9d985b1a5908199959481c9958da5c1a595b9d605a1b6044820152606490fd5b34610336576000366003190112610336576020600954604051908152f35b6020366003190112610336576004356104f961231a565b80600052600b602052604060002060405161051381611c98565b8154815260018201546020820152610585600283015491604081019283526003840154936060820194855260048101549160018060a01b038316608082015260e0600560ff808660a01c161515958660a086015260a81c161593841560c085015201549101528161069a575b50612064565b514210610655575142116106105761059c816120b5565b34106105d4576000818152600b60205260409020600401805461ffff60a01b1916600160a81b1790556105ce81612237565b33611f03565b60405162461bcd60e51b8152602060048201526014602482015273125b9cdd59999a58da595b9d081c185e5b595b9d60621b6044820152606490fd5b60405162461bcd60e51b815260206004820152601860248201527f41756374696f6e2074696d6520686173206578706972656400000000000000006044820152606490fd5b60405162461bcd60e51b815260206004820152601760248201527f41756374696f6e20686173206e6f7420737461727465640000000000000000006044820152606490fd5b90508561057f565b34610336576040366003190112610336576106bb611bab565b6106c3611bc1565b9060018060a01b0316600052600560205260406000209060018060a01b0316600052602052602060ff604060002054166040519015158152f35b610120366003190112610336576004356001600160401b03811161033657610729903690600401611e57565b6024356001600160401b03811161033657610748903690600401611e57565b506044356001600160401b03811161033657610768903690600401611e57565b506064356001600160401b03811161033657610788903690600401611e57565b506084356001600160401b038111610336576107a8903690600401611cec565b5060a4356001600160401b038111610336576107c8903690600401611e57565b5060c4356001600160401b038111610336576107e8903690600401611e57565b5060e4356001600160401b03811161033657610808903690600401611e57565b5061081161231a565b600d5434106108ea57610104351561089757511561085a5760095460001981146108445761083d611f26565b5033611f03565b634e487b7160e01b600052601160045260246000fd5b60405162461bcd60e51b8152602060048201526015602482015274141c9bd91d58dd081b985b59481c995c5d5a5c9959605a1b6044820152606490fd5b60405162461bcd60e51b815260206004820152602560248201527f5374617274696e67207072696365206d75737420626520677265617465722074604482015264068616e20360dc1b6064820152608490fd5b60405162461bcd60e51b815260206004820152601860248201527f496e73756666696369656e74206c697374696e672066656500000000000000006044820152606490fd5b346103365760003660031901126103365761094861220e565b4780156109d4576007546000918291829182916001600160a01b03165af13d156109cf573d61097681611e05565b906109846040519283611cb4565b8152600060203d92013e5b1561099657005b60405162461bcd60e51b815260206004820152601160248201527015da5d1a191c985dd85b0819985a5b1959607a1b6044820152606490fd5b61098f565b60405162461bcd60e51b81526020600482015260166024820152754e6f2062616c616e636520746f20776974686472617760501b6044820152606490fd5b346103365760003660031901126103365760405180602060105491828152019060106000527f1b6847dc741a1b0cd08d278845f9d819d87b734759afb55fe2de5cb82a9ae6729060005b818110610a8357610a7f85610a7381870382611cb4565b60405191829182611c11565b0390f35b8254845260209093019260019283019201610a5c565b3461033657602036600319011261033657610a7f610ab86004356122e7565b604051918291602083526020830190611b6c565b34610336576020366003190112610336576020610aea6004356120b5565b604051908152f35b3461033657602036600319011261033657600435610b226001600160a01b03610b1a836121d7565b161515611e75565b600052600a60205260206004604060002001541515604051908152f35b346103365760403660031901126103365760043560105480821015610bf85760243582019081831161084457808211610bf0575b50610b7e82826120a8565b91610b8883611cd5565b92610b966040519485611cb4565b808452610ba5601f1991611cd5565b01366020850137805b828110610bc35760405180610a7f8682611c11565b80610bcf600192611c4b565b90549060031b1c610be9610be385846120a8565b87611f44565b5201610bae565b905082610b73565b60405162461bcd60e51b815260206004820152601b60248201527f4f66667365742065786365656473206172726179206c656e67746800000000006044820152606490fd5b3461033657608036600319011261033657610c56611bab565b50610c5f611bc1565b6064356001600160401b038111610336573660238201121561033657610c8f903690602481600401359101611e20565b5060443590611f03565b34610336576000366003190112610336576020604051620151808152f35b3461033657604036600319011261033657610cd0611bab565b60243590811515809203610336576001600160a01b0316908115610d4357336000526005602052604060002082600052602052604060002060ff1981541660ff83161790556040519081527f17307eab39ab6107e8899845ad3d59bd9653f200f220920489ca2b5937696c3160203392a3005b50630b61174360e31b60005260045260246000fd5b346103365760203660031901126103365760043580600052600b602052610d9060018060a01b03600460406000200154161515611fc8565b80600052600b602052610db460018060a01b0360046040600020015416331461200d565b80600052600b60205260406000206003810154421115610e4057600401805460ff8160a01c1680610e31575b610de990612064565b61ffff60a01b1916600160a81b179055610e0281612237565b604051904282527fc326dcfb5d4e924f5e3e717c0f667b0eecb5abb73fc0b33236b6107c1fd48a5760203393a3005b5060a881901c60ff1615610de0565b60405162461bcd60e51b815260206004820152601760248201527f41756374696f6e20686173206e6f7420657870697265640000000000000000006044820152606490fd5b346103365760203660031901126103365760043580600052600b602052610ebd60018060a01b03600460406000200154161515611fc8565b80600052600b602052610ee160018060a01b0360046040600020015416331461200d565b80600052600b6020526004604060002001805460ff8160a01c1680610e3157610de990612064565b346103365760003660031901126103365760405160006001548060011c90600181168015610ff6575b602083108114610fe257828552908115610fbe5750600114610f5f575b610a7f83610ab881850382611cb4565b600160009081527fb10e2d527612073b26eecdfd717e6a320cf44b4afac2b0732d9fcbe2b7fa0cf6939250905b808210610fa457509091508101602001610ab8610f4f565b919260018160209254838588010152019101909291610f8c565b60ff191660208086019190915291151560051b84019091019150610ab89050610f4f565b634e487b7160e01b84526022600452602484fd5b91607f1691610f32565b34610336576000366003190112610336576007546040516001600160a01b039091168152602090f35b3461033657604036600319011261033657602061104a602435600435611f58565b6040519015158152f35b3461033657602036600319011261033657600435600f5481101561033657600090600f5481101561109257602082600f829452200154604051908152f35b634e487b7160e01b82526032600452602482fd5b3461033657602036600319011261033657600435601054811015610336576110cf602091611c4b565b90549060031b1c604051908152f35b34610336576020366003190112610336576001600160a01b036110ff611bab565b16600052600c602052604060002060405190816020825491828152019160005260206000209060005b81811061113f57610a7f85610a7381870382611cb4565b8254845260209093019260019283019201611128565b346103365760003660031901126103365761116e61220e565b600780546001600160a01b031981169091556000906001600160a01b03167f8be0079c531659141344cd1fd0a4f28419497f9722a3daafe3b4186f6b6457e08280a3005b34610336576020366003190112610336576001600160a01b036111d3611bab565b1680156111f25760005260036020526020604060002054604051908152f35b6322718ad960e21b600052600060045260246000fd5b3461033657602036600319011261033657600435600052600a602052604060002061010061123582611d49565b9161124260018201611d49565b6112f161125160028401611d49565b6112e361126060038601611d49565b6112d561126f60058801611d49565b916112c761127f60068a01611d49565b956112b960078b01549a600860018060a01b0391015416996112ab6040519e8f9e8f8181520190611b6c565b8d810360208f015290611b6c565b908b820360408d0152611b6c565b9089820360608b0152611b6c565b908782036080890152611b6c565b9085820360a0870152611b6c565b9160c084015260e08301520390f35b34610336576000366003190112610336576020600d54604051908152f35b3461033657602036600319011261033657602061133c6004356121d7565b6040516001600160a01b039091168152f35b3461033657602036600319011261033657600435600061010060405161137381611c7c565b60608152606060208201526060604082015260608082015260606080820152606060a0820152606060c08201528260e082015201526113bb60018060a01b03610b1a836121d7565b600052600a60205260406000206020604051916113d783611c7c565b6113e081611d49565b83526113ee60018201611d49565b9282810193845261140160028301611d49565b936040820194855261141560038401611d49565b94606083019586526114dc61142c60048601611eb8565b96608085019788526114c961144360058801611d49565b9360a087019485526114b661145a60068a01611d49565b9660c089019788526114a360078b01549a60e08b019b8c52600860018060a01b03910154169961010081019a8b526101206040519d8e92818452519201526101408d0190611b6c565b90518b8203601f190160408d0152611b6c565b9051898203601f190160608b0152611b6c565b9051878203601f19016080890152611b6c565b955195601f198682030160a08701526020808851928381520197019060005b818110611550575050509061152185966115349351601f198883030160c0890152611b6c565b9051858203601f190160e0870152611b6c565b9151610100840152516001600160a01b03166101208301520390f35b82518952602098890198909201916001016114fb565b3461033657602036600319011261033657600435600052600b602052610100604060002080549060ff6001820154916002810154600382015490600560048401549301549460405196875260208701526040860152606085015260018060a01b0381166080850152818160a01c16151560a085015260a81c16151560c083015260e0820152f35b34610336576040366003190112610336576004356024356001600160401b03811161033657611620903690600401611cec565b9061162961220e565b61163d6001600160a01b03610b1a836121d7565b600052600a6020526004604060002001908051906001600160401b0382116116d3576801000000000000000082116116d35782548284558083106116aa575b506020019160005260206000209160005b82811061169657005b60019060208351930192818601550161168d565b8360005282602060002091820191015b8181106116c7575061167c565b600081556001016116ba565b634e487b7160e01b600052604160045260246000fd5b3461033657600036600319011261033657602060405160028152f35b3461033657600036600319011261033657600e546040516001600160a01b039091168152602090f35b346103365761173c36611bd7565b9150611746611f26565b506001600160a01b031661233c57633250574960e11b600052600060045260246000fd5b3461033657604036600319011261033657611783611bab565b6001600160a01b03166000908152600c602052604090208054602435908110156103365760009180548210156117c55782526020918290200154604051908152f35b634e487b7160e01b83526032600452602483fd5b3461033657600036600319011261033657604051806020600f54918281520190600f6000527f8d1108e10bcb7c27dddfc02ed9d693a074039d026cf4ea4240b40f7d581ac8029060005b81811061183a57610a7f85610a7381870382611cb4565b8254845260209093019260019283019201611823565b346103365761185e36611bd7565b91506001600160a01b031661233c57633250574960e11b600052600060045260246000fd5b34610336576020366003190112610336576004356118ab6001600160a01b03610b1a836121d7565b600052600a6020526118c36004604060002001611eb8565b60405180916020820160208352815180915260206040840192019060005b8181106118ef575050500390f35b82518452859450602093840193909201916001016118e1565b3461033657604036600319011261033657611921611bab565b60243561192d816121d7565b91331515806119db575b806119ad575b611998576001600160a01b039081169282918491167f8c5be1e5ebec7d5bd14f71427d1e84f3dd0314c0f7b2291e5b200ac8c7c3b925600080a4600090815260046020526040902080546001600160a01b0319169091179055005b63a9fbf51f60e01b6000523360045260246000fd5b506001600160a01b038316600090815260056020908152604080832033845290915290205460ff161561193d565b506001600160a01b038316331415611937565b3461033657602036600319011261033657600435611a0b816121d7565b506000526004602052602060018060a01b0360406000205416604051908152f35b3461033657600036600319011261033657604051600080548060011c90600181168015611add575b602083108114610fe257828552908115610fbe5750600114611a8057610a7f83610ab881850382611cb4565b60008080527f290decd9548b62a8d60345a988386fc84ba6bc95484008f6362f93160ef3e563939250905b808210611ac357509091508101602001610ab8610f4f565b919260018160209254838588010152019101909291611aab565b91607f1691611a54565b34610336576020366003190112610336576004359063ffffffff60e01b821680920361033657602091632483248360e11b8114908115611b29575b5015158152f35b6380ac58cd60e01b811491508115611b5b575b8115611b4a575b5083611b22565b6301ffc9a760e01b14905083611b43565b635b5e139f60e01b81149150611b3c565b919082518082526020808301940160005b828110611b9b575050600081602094950152601f8019910116010190565b8181015186820152602001611b7d565b600435906001600160a01b038216820361033657565b602435906001600160a01b038216820361033657565b6060906003190112610336576004356001600160a01b038116810361033657906024356001600160a01b0381168103610336579060443590565b602060408183019282815284518094520192019060005b818110611c355750505090565b8251845260209384019390920191600101611c28565b601054811015611c6657601060005260206000200190600090565b634e487b7160e01b600052603260045260246000fd5b61012081019081106001600160401b038211176116d357604052565b61010081019081106001600160401b038211176116d357604052565b90601f801991011681019081106001600160401b038211176116d357604052565b6001600160401b0381116116d35760051b60200190565b9080601f83011215610336578135611d0381611cd5565b92611d116040519485611cb4565b81845260208085019260051b82010192831161033657602001905b828210611d395750505090565b8135815260209182019101611d2c565b906040519160008154918260011c92600181168015611dfb575b602085108114610fe257848752869392918115611dd95750600114611d92575b50611d9092500383611cb4565b565b90506000929192526020600020906000915b818310611dbd575050906020611d909282010138611d83565b6020919350806001915483858901015201910190918492611da4565b905060209250611d9094915060ff191682840152151560051b82010138611d83565b93607f1693611d63565b6001600160401b0381116116d357601f01601f191660200190565b929192611e2c82611e05565b91611e3a6040519384611cb4565b829481845281830111610336578281602093846000960137010152565b9080601f8301121561033657816020611e7293359101611e20565b90565b15611e7c57565b60405162461bcd60e51b8152602060048201526014602482015273151bdad95b88191bd95cc81b9bdd08195e1a5cdd60621b6044820152606490fd5b906040519182815491828252602082019060005260206000209260005b818110611eea575050611d9092500383611cb4565b8454835260019485019487945060209093019201611ed5565b6001600160a01b031661233c57633250574960e11b600052600060045260246000fd5b611f306000611e05565b90611f3e6040519283611cb4565b60008252565b8051821015611c665760209160051b010190565b611f6c6001600160a01b03610b1a836121d7565b600052600a602052611f846004604060002001611eb8565b90815115611fc15760005b8251811015611fb95781611fa38285611f44565b5114611fb157600101611f8f565b505050600190565b505050600090565b5050600090565b15611fcf57565b60405162461bcd60e51b8152602060048201526016602482015275105d58dd1a5bdb88191bd95cc81b9bdd08195e1a5cdd60521b6044820152606490fd5b1561201457565b60405162461bcd60e51b815260206004820152602260248201527f4f6e6c792073656c6c65722063616e2063616c6c20746869732066756e63746960448201526137b760f11b6064820152608490fd5b1561206b57565b60405162461bcd60e51b815260206004820152601560248201527441756374696f6e206973206e6f742061637469766560581b6044820152606490fd5b9190820391821161084457565b6000818152600b6020526040902060040154611e7291906120e0906001600160a01b03161515611fc8565b600052600b60205260406000206040516120f981611c98565b8154918282526001810154926020830193808552600283015492836040860152600381015490816060870152600481015460018060a01b038116608088015260ff808260a01c161591821560a08a015260a81c16159160058315918260c08b0152015460e0890152916121cf575b506121c4574210156121bc5750814211156121b5575061218a61219591426120a8565b9282519051906120a8565b8281029281840414901517156108445762015180611e72920490516120a8565b9250505090565b935050505090565b505050505050600090565b905038612167565b6000818152600260205260409020546001600160a01b03169081156121fa575090565b637e27328960e01b60005260045260246000fd5b6007546001600160a01b0316330361222257565b63118cdaa760e01b6000523360045260246000fd5b60005b601054808210156122e2578261224f83611c4b565b90549060031b1c14612264575060010161223a565b90915060001981019081116108445761227f61228c91611c4b565b90549060031b1c91611c4b565b819291549060031b91821b91600019901b191617905560105480156122cc57600019016122b881611c4b565b8154906000199060031b1b19169055601055565b634e487b7160e01b600052603160045260246000fd5b505050565b6122f0816121d7565b5060005260066020526123066040600020611d49565b6000604051612316602082611cb4565b5290565b60026008541461232b576002600855565b633ee5aeb560e01b60005260046000fd5b61233c56fea26469706673582212205fa32dec7c046361c372f33a0d8f224ca7b8aaa350b53ff22334b7c8b840e3a364736f6c634300081c0033",
  "linkReferences": {},
  "deployedLinkReferences": {}
}