{
  "_format": "hh-sol-artifact-1",
  "contractName": "RWASingleton",
  "sourceName": "contracts/RWASingleton.sol",
  "abi": [
    {
      "inputs": [
        {
          "internalType": "string",
          "name": "name",
          "type": "string"
        },
        {
          "internalType": "string",
          "name": "symbol",
          "type": "string"
        },
        {
          "internalType": "address",
          "name": "_feeRecipient",
          "type": "address"
        }
      ],
      "stateMutability": "nonpayable",
      "type": "constructor"
    },
    {
      "inputs": [
        {
          "internalType": "address",
          "name": "sender",
          "type": "address"
        },
        {
          "internalType": "uint256",
          "name": "tokenId",
          "type": "uint256"
        },
        {
          "internalType": "address",
          "name": "owner",
          "type": "address"
        }
      ],
      "name": "ERC721IncorrectOwner",
      "type": "error"
    },
    {
      "inputs": [
        {
          "internalType": "address",
          "name": "operator",
          "type": "address"
        },
        {
          "internalType": "uint256",
          "name": "tokenId",
          "type": "uint256"
        }
      ],
      "name": "ERC721InsufficientApproval",
      "type": "error"
    },
    {
      "inputs": [
        {
          "internalType": "address",
          "name": "approver",
          "type": "address"
        }
      ],
      "name": "ERC721InvalidApprover",
      "type": "error"
    },
    {
      "inputs": [
        {
          "internalType": "address",
          "name": "operator",
          "type": "address"
        }
      ],
      "name": "ERC721InvalidOperator",
      "type": "error"
    },
    {
      "inputs": [
        {
          "internalType": "address",
          "name": "owner",
          "type": "address"
        }
      ],
      "name": "ERC721InvalidOwner",
      "type": "error"
    },
    {
      "inputs": [
        {
          "internalType": "address",
          "name": "receiver",
          "type": "address"
        }
      ],
      "name": "ERC721InvalidReceiver",
      "type": "error"
    },
    {
      "inputs": [
        {
          "internalType": "address",
          "name": "sender",
          "type": "address"
        }
      ],
      "name": "ERC721InvalidSender",
      "type": "error"
    },
    {
      "inputs": [
        {
          "internalType": "uint256",
          "name": "tokenId",
          "type": "uint256"
        }
      ],
      "name": "ERC721NonexistentToken",
      "type": "error"
    },
    {
      "inputs": [
        {
          "internalType": "address",
          "name": "owner",
          "type": "address"
        }
      ],
      "name": "OwnableInvalidOwner",
      "type": "error"
    },
    {
      "inputs": [
        {
          "internalType": "address",
          "name": "account",
          "type": "address"
        }
      ],
      "name": "OwnableUnauthorizedAccount",
      "type": "error"
    },
    {
      "inputs": [],
      "name": "ReentrancyGuardReentrantCall",
      "type": "error"
    },
    {
      "anonymous": false,
      "inputs": [
        {
          "indexed": true,
          "internalType": "address",
          "name": "owner",
          "type": "address"
        },
        {
          "indexed": true,
          "internalType": "address",
          "name": "approved",
          "type": "address"
        },
        {
          "indexed": true,
          "internalType": "uint256",
          "name": "tokenId",
          "type": "uint256"
        }
      ],
      "name": "Approval",
      "type": "event"
    },
    {
      "anonymous": false,
      "inputs": [
        {
          "indexed": true,
          "internalType": "address",
          "name": "owner",
          "type": "address"
        },
        {
          "indexed": true,
          "internalType": "address",
          "name": "operator",
          "type": "address"
        },
        {
          "indexed": false,
          "internalType": "bool",
          "name": "approved",
          "type": "bool"
        }
      ],
      "name": "ApprovalForAll",
      "type": "event"
    },
    {
      "anonymous": false,
      "inputs": [
        {
          "indexed": true,
          "internalType": "uint256",
          "name": "tokenId",
          "type": "uint256"
        },
        {
          "indexed": true,
          "internalType": "address",
          "name": "seller",
          "type": "address"
        },
        {
          "indexed": false,
          "internalType": "uint256",
          "name": "timestamp",
          "type": "uint256"
        }
      ],
      "name": "AuctionCanceled",
      "type": "event"
    },
    {
      "anonymous": false,
      "inputs": [
        {
          "indexed": true,
          "internalType": "uint256",
          "name": "tokenId",
          "type": "uint256"
        },
        {
          "indexed": true,
          "internalType": "address",
          "name": "buyer",
          "type": "address"
        },
        {
          "indexed": true,
          "internalType": "address",
          "name": "seller",
          "type": "address"
        },
        {
          "indexed": false,
          "internalType": "uint256",
          "name": "price",
          "type": "uint256"
        },
        {
          "indexed": false,
          "internalType": "uint256",
          "name": "timestamp",
          "type": "uint256"
        }
      ],
      "name": "AuctionPurchased",
      "type": "event"
    },
    {
      "anonymous": false,
      "inputs": [
        {
          "indexed": false,
          "internalType": "uint256",
          "name": "_fromTokenId",
          "type": "uint256"
        },
        {
          "indexed": false,
          "internalType": "uint256",
          "name": "_toTokenId",
          "type": "uint256"
        }
      ],
      "name": "BatchMetadataUpdate",
      "type": "event"
    },
    {
      "anonymous": false,
      "inputs": [
        {
          "indexed": false,
          "internalType": "address",
          "name": "newRecipient",
          "type": "address"
        }
      ],
      "name": "FeeRecipientUpdated",
      "type": "event"
    },
    {
      "anonymous": false,
      "inputs": [
        {
          "indexed": false,
          "internalType": "uint256",
          "name": "newFee",
          "type": "uint256"
        }
      ],
      "name": "ListingFeeUpdated",
      "type": "event"
    },
    {
      "anonymous": false,
      "inputs": [
        {
          "indexed": false,
          "internalType": "uint256",
          "name": "_tokenId",
          "type": "uint256"
        }
      ],
      "name": "MetadataUpdate",
      "type": "event"
    },
    {
      "anonymous": false,
      "inputs": [
        {
          "indexed": true,
          "internalType": "address",
          "name": "previousOwner",
          "type": "address"
        },
        {
          "indexed": true,
          "internalType": "address",
          "name": "newOwner",
          "type": "address"
        }
      ],
      "name": "OwnershipTransferred",
      "type": "event"
    },
    {
      "anonymous": false,
      "inputs": [
        {
          "indexed": true,
          "internalType": "uint256",
          "name": "tokenId",
          "type": "uint256"
        },
        {
          "indexed": true,
          "internalType": "address",
          "name": "seller",
          "type": "address"
        },
        {
          "indexed": false,
          "internalType": "string",
          "name": "productName",
          "type": "string"
        },
        {
          "indexed": false,
          "internalType": "uint256",
          "name": "startingPrice",
          "type": "uint256"
        },
        {
          "indexed": false,
          "internalType": "uint256",
          "name": "minimumPrice",
          "type": "uint256"
        },
        {
          "indexed": false,
          "internalType": "uint256",
          "name": "startTime",
          "type": "uint256"
        },
        {
          "indexed": false,
          "internalType": "uint256",
          "name": "endTime",
          "type": "uint256"
        }
      ],
      "name": "RWAListed",
      "type": "event"
    },
    {
      "anonymous": false,
      "inputs": [
        {
          "indexed": true,
          "internalType": "address",
          "name": "from",
          "type": "address"
        },
        {
          "indexed": true,
          "internalType": "address",
          "name": "to",
          "type": "address"
        },
        {
          "indexed": true,
          "internalType": "uint256",
          "name": "tokenId",
          "type": "uint256"
        }
      ],
      "name": "Transfer",
      "type": "event"
    },
    {
      "inputs": [],
      "name": "AUCTION_DURATION",
      "outputs": [
        {
          "internalType": "uint256",
          "name": "",
          "type": "uint256"
        }
      ],
      "stateMutability": "view",
      "type": "function"
    },
    {
      "inputs": [],
      "name": "PRICE_REDUCTION_FACTOR",
      "outputs": [
        {
          "internalType": "uint256",
          "name": "",
          "type": "uint256"
        }
      ],
      "stateMutability": "view",
      "type": "function"
    },
    {
      "inputs": [
        {
          "internalType": "uint256",
          "name": "",
          "type": "uint256"
        }
      ],
      "name": "activeAuctions",
      "outputs": [
        {
          "internalType": "uint256",
          "name": "",
          "type": "uint256"
        }
      ],
      "stateMutability": "view",
      "type": "function"
    },
    {
      "inputs": [
        {
          "internalType": "uint256",
          "name": "",
          "type": "uint256"
        }
      ],
      "name": "allTokenIds",
      "outputs": [
        {
          "internalType": "uint256",
          "name": "",
          "type": "uint256"
        }
      ],
      "stateMutability": "view",
      "type": "function"
    },
    {
      "inputs": [
        {
          "internalType": "address",
          "name": "to",
          "type": "address"
        },
        {
          "internalType": "uint256",
          "name": "tokenId",
          "type": "uint256"
        }
      ],
      "name": "approve",
      "outputs": [],
      "stateMutability": "nonpayable",
      "type": "function"
    },
    {
      "inputs": [
        {
          "internalType": "uint256",
          "name": "",
          "type": "uint256"
        }
      ],
      "name": "auctions",
      "outputs": [
        {
          "internalType": "uint256",
          "name": "startingPrice",
          "type": "uint256"
        },
        {
          "internalType": "uint256",
          "name": "minimumPrice",
          "type": "uint256"
        },
        {
          "internalType": "uint256",
          "name": "startTime",
          "type": "uint256"
        },
        {
          "internalType": "uint256",
          "name": "endTime",
          "type": "uint256"
        },
        {
          "internalType": "address",
          "name": "seller",
          "type": "address"
        },
        {
          "internalType": "bool",
          "name": "isActive",
          "type": "bool"
        },
        {
          "internalType": "bool",
          "name": "hasEnded",
          "type": "bool"
        },
        {
          "internalType": "uint256",
          "name": "createdAt",
          "type": "uint256"
        }
      ],
      "stateMutability": "view",
      "type": "function"
    },
    {
      "inputs": [
        {
          "internalType": "address",
          "name": "owner",
          "type": "address"
        }
      ],
      "name": "balanceOf",
      "outputs": [
        {
          "internalType": "uint256",
          "name": "",
          "type": "uint256"
        }
      ],
      "stateMutability": "view",
      "type": "function"
    },
    {
      "inputs": [
        {
          "internalType": "uint256",
          "name": "tokenId",
          "type": "uint256"
        }
      ],
      "name": "cancelAuction",
      "outputs": [],
      "stateMutability": "nonpayable",
      "type": "function"
    },
    {
      "inputs": [
        {
          "internalType": "uint256",
          "name": "tokenId",
          "type": "uint256"
        }
      ],
      "name": "emergencyEndAuction",
      "outputs": [],
      "stateMutability": "nonpayable",
      "type": "function"
    },
    {
      "inputs": [],
      "name": "emergencyWithdraw",
      "outputs": [],
      "stateMutability": "nonpayable",
      "type": "function"
    },
    {
      "inputs": [],
      "name": "feeRecipient",
      "outputs": [
        {
          "internalType": "address",
          "name": "",
          "type": "address"
        }
      ],
      "stateMutability": "view",
      "type": "function"
    },
    {
      "inputs": [],
      "name": "getActiveAuctions",
      "outputs": [
        {
          "internalType": "uint256[]",
          "name": "",
          "type": "uint256[]"
        }
      ],
      "stateMutability": "view",
      "type": "function"
    },
    {
      "inputs": [
        {
          "internalType": "uint256",
          "name": "offset",
          "type": "uint256"
        },
        {
          "internalType": "uint256",
          "name": "limit",
          "type": "uint256"
        }
      ],
      "name": "getActiveAuctionsPaginated",
      "outputs": [
        {
          "internalType": "uint256[]",
          "name": "",
          "type": "uint256[]"
        }
      ],
      "stateMutability": "view",
      "type": "function"
    },
    {
      "inputs": [],
      "name": "getAllTokens",
      "outputs": [
        {
          "internalType": "uint256[]",
          "name": "",
          "type": "uint256[]"
        }
      ],
      "stateMutability": "view",
      "type": "function"
    },
    {
      "inputs": [
        {
          "internalType": "uint256",
          "name": "tokenId",
          "type": "uint256"
        }
      ],
      "name": "getApproved",
      "outputs": [
        {
          "internalType": "address",
          "name": "",
          "type": "address"
        }
      ],
      "stateMutability": "view",
      "type": "function"
    },
    {
      "inputs": [
        {
          "internalType": "uint256",
          "name": "tokenId",
          "type": "uint256"
        }
      ],
      "name": "getAuctionInfo",
      "outputs": [
        {
          "internalType": "uint256",
          "name": "currentPrice",
          "type": "uint256"
        },
        {
          "internalType": "uint256",
          "name": "startingPrice",
          "type": "uint256"
        },
        {
          "internalType": "uint256",
          "name": "minimumPrice",
          "type": "uint256"
        },
        {
          "internalType": "uint256",
          "name": "startTime",
          "type": "uint256"
        },
        {
          "internalType": "uint256",
          "name": "endTime",
          "type": "uint256"
        },
        {
          "internalType": "address",
          "name": "seller",
          "type": "address"
        },
        {
          "internalType": "bool",
          "name": "isActive",
          "type": "bool"
        },
        {
          "internalType": "bool",
          "name": "hasEnded",
          "type": "bool"
        },
        {
          "internalType": "uint256",
          "name": "timeRemaining",
          "type": "uint256"
        }
      ],
      "stateMutability": "view",
      "type": "function"
    },
    {
      "inputs": [
        {
          "internalType": "uint256",
          "name": "tokenId",
          "type": "uint256"
        }
      ],
      "name": "getCertificateHashes",
      "outputs": [
        {
          "internalType": "bytes32[]",
          "name": "",
          "type": "bytes32[]"
        }
      ],
      "stateMutability": "view",
      "type": "function"
    },
    {
      "inputs": [
        {
          "internalType": "uint256",
          "name": "tokenId",
          "type": "uint256"
        }
      ],
      "name": "getCurrentPrice",
      "outputs": [
        {
          "internalType": "uint256",
          "name": "",
          "type": "uint256"
        }
      ],
      "stateMutability": "view",
      "type": "function"
    },
    {
      "inputs": [
        {
          "internalType": "uint256",
          "name": "tokenId",
          "type": "uint256"
        }
      ],
      "name": "getRWAMetadata",
      "outputs": [
        {
          "components": [
            {
              "internalType": "string",
              "name": "productName",
              "type": "string"
            },
            {
              "internalType": "string",
              "name": "description",
              "type": "string"
            },
            {
              "internalType": "string",
              "name": "sellerDetails",
              "type": "string"
            },
            {
              "internalType": "string",
              "name": "imageURI",
              "type": "string"
            },
            {
              "internalType": "bytes32[]",
              "name": "certificateHashes",
              "type": "bytes32[]"
            },
            {
              "internalType": "string",
              "name": "refundPolicy",
              "type": "string"
            },
            {
              "internalType": "string",
              "name": "termsAndConditions",
              "type": "string"
            },
            {
              "internalType": "uint256",
              "name": "createdAt",
              "type": "uint256"
            },
            {
              "internalType": "address",
              "name": "seller",
              "type": "address"
            }
          ],
          "internalType": "struct RWASingleton.RWAMetadata",
          "name": "",
          "type": "tuple"
        }
      ],
      "stateMutability": "view",
      "type": "function"
    },
    {
      "inputs": [
        {
          "internalType": "address",
          "name": "seller",
          "type": "address"
        }
      ],
      "name": "getSellerTokens",
      "outputs": [
        {
          "internalType": "uint256[]",
          "name": "",
          "type": "uint256[]"
        }
      ],
      "stateMutability": "view",
      "type": "function"
    },
    {
      "inputs": [],
      "name": "getTotalTokens",
      "outputs": [
        {
          "internalType": "uint256",
          "name": "",
          "type": "uint256"
        }
      ],
      "stateMutability": "view",
      "type": "function"
    },
    {
      "inputs": [
        {
          "internalType": "uint256",
          "name": "tokenId",
          "type": "uint256"
        }
      ],
      "name": "hasCertificates",
      "outputs": [
        {
          "internalType": "bool",
          "name": "",
          "type": "bool"
        }
      ],
      "stateMutability": "view",
      "type": "function"
    },
    {
      "inputs": [
        {
          "internalType": "address",
          "name": "owner",
          "type": "address"
        },
        {
          "internalType": "address",
          "name": "operator",
          "type": "address"
        }
      ],
      "name": "isApprovedForAll",
      "outputs": [
        {
          "internalType": "bool",
          "name": "",
          "type": "bool"
        }
      ],
      "stateMutability": "view",
      "type": "function"
    },
    {
      "inputs": [
        {
          "internalType": "string",
          "name": "productName",
          "type": "string"
        },
        {
          "internalType": "string",
          "name": "description",
          "type": "string"
        },
        {
          "internalType": "string",
          "name": "sellerDetails",
          "type": "string"
        },
        {
          "internalType": "string",
          "name": "imageURI",
          "type": "string"
        },
        {
          "internalType": "bytes32[]",
          "name": "certificateHashes",
          "type": "bytes32[]"
        },
        {
          "internalType": "string",
          "name": "refundPolicy",
          "type": "string"
        },
        {
          "internalType": "string",
          "name": "termsAndConditions",
          "type": "string"
        },
        {
          "internalType": "string",
          "name": "tokenURI",
          "type": "string"
        },
        {
          "internalType": "uint256",
          "name": "startingPrice",
          "type": "uint256"
        }
      ],
      "name": "listRWA",
      "outputs": [
        {
          "internalType": "uint256",
          "name": "tokenId",
          "type": "uint256"
        }
      ],
      "stateMutability": "payable",
      "type": "function"
    },
    {
      "inputs": [],
      "name": "listingFee",
      "outputs": [
        {
          "internalType": "uint256",
          "name": "",
          "type": "uint256"
        }
      ],
      "stateMutability": "view",
      "type": "function"
    },
    {
      "inputs": [],
      "name": "name",
      "outputs": [
        {
          "internalType": "string",
          "name": "",
          "type": "string"
        }
      ],
      "stateMutability": "view",
      "type": "function"
    },
    {
      "inputs": [],
      "name": "owner",
      "outputs": [
        {
          "internalType": "address",
          "name": "",
          "type": "address"
        }
      ],
      "stateMutability": "view",
      "type": "function"
    },
    {
      "inputs": [
        {
          "internalType": "uint256",
          "name": "tokenId",
          "type": "uint256"
        }
      ],
      "name": "ownerOf",
      "outputs": [
        {
          "internalType": "address",
          "name": "",
          "type": "address"
        }
      ],
      "stateMutability": "view",
      "type": "function"
    },
    {
      "inputs": [
        {
          "internalType": "uint256",
          "name": "tokenId",
          "type": "uint256"
        }
      ],
      "name": "purchase",
      "outputs": [],
      "stateMutability": "payable",
      "type": "function"
    },
    {
      "inputs": [],
      "name": "renounceOwnership",
      "outputs": [],
      "stateMutability": "nonpayable",
      "type": "function"
    },
    {
      "inputs": [
        {
          "internalType": "uint256",
          "name": "",
          "type": "uint256"
        }
      ],
      "name": "rwaMetadata",
      "outputs": [
        {
          "internalType": "string",
          "name": "productName",
          "type": "string"
        },
        {
          "internalType": "string",
          "name": "description",
          "type": "string"
        },
        {
          "internalType": "string",
          "name": "sellerDetails",
          "type": "string"
        },
        {
          "internalType": "string",
          "name": "imageURI",
          "type": "string"
        },
        {
          "internalType": "string",
          "name": "refundPolicy",
          "type": "string"
        },
        {
          "internalType": "string",
          "name": "termsAndConditions",
          "type": "string"
        },
        {
          "internalType": "uint256",
          "name": "createdAt",
          "type": "uint256"
        },
        {
          "internalType": "address",
          "name": "seller",
          "type": "address"
        }
      ],
      "stateMutability": "view",
      "type": "function"
    },
    {
      "inputs": [
        {
          "internalType": "address",
          "name": "from",
          "type": "address"
        },
        {
          "internalType": "address",
          "name": "to",
          "type": "address"
        },
        {
          "internalType": "uint256",
          "name": "tokenId",
          "type": "uint256"
        }
      ],
      "name": "safeTransferFrom",
      "outputs": [],
      "stateMutability": "nonpayable",
      "type": "function"
    },
    {
      "inputs": [
        {
          "internalType": "address",
          "name": "from",
          "type": "address"
        },
        {
          "internalType": "address",
          "name": "to",
          "type": "address"
        },
        {
          "internalType": "uint256",
          "name": "tokenId",
          "type": "uint256"
        },
        {
          "internalType": "bytes",
          "name": "data",
          "type": "bytes"
        }
      ],
      "name": "safeTransferFrom",
      "outputs": [],
      "stateMutability": "nonpayable",
      "type": "function"
    },
    {
      "inputs": [
        {
          "internalType": "address",
          "name": "",
          "type": "address"
        },
        {
          "internalType": "uint256",
          "name": "",
          "type": "uint256"
        }
      ],
      "name": "sellerTokens",
      "outputs": [
        {
          "internalType": "uint256",
          "name": "",
          "type": "uint256"
        }
      ],
      "stateMutability": "view",
      "type": "function"
    },
    {
      "inputs": [
        {
          "internalType": "address",
          "name": "operator",
          "type": "address"
        },
        {
          "internalType": "bool",
          "name": "approved",
          "type": "bool"
        }
      ],
      "name": "setApprovalForAll",
      "outputs": [],
      "stateMutability": "nonpayable",
      "type": "function"
    },
    {
      "inputs": [
        {
          "internalType": "bytes4",
          "name": "interfaceId",
          "type": "bytes4"
        }
      ],
      "name": "supportsInterface",
      "outputs": [
        {
          "internalType": "bool",
          "name": "",
          "type": "bool"
        }
      ],
      "stateMutability": "view",
      "type": "function"
    },
    {
      "inputs": [],
      "name": "symbol",
      "outputs": [
        {
          "internalType": "string",
          "name": "",
          "type": "string"
        }
      ],
      "stateMutability": "view",
      "type": "function"
    },
    {
      "inputs": [
        {
          "internalType": "uint256",
          "name": "tokenId",
          "type": "uint256"
        }
      ],
      "name": "tokenURI",
      "outputs": [
        {
          "internalType": "string",
          "name": "",
          "type": "string"
        }
      ],
      "stateMutability": "view",
      "type": "function"
    },
    {
      "inputs": [
        {
          "internalType": "address",
          "name": "from",
          "type": "address"
        },
        {
          "internalType": "address",
          "name": "to",
          "type": "address"
        },
        {
          "internalType": "uint256",
          "name": "tokenId",
          "type": "uint256"
        }
      ],
      "name": "transferFrom",
      "outputs": [],
      "stateMutability": "nonpayable",
      "type": "function"
    },
    {
      "inputs": [
        {
          "internalType": "address",
          "name": "newOwner",
          "type": "address"
        }
      ],
      "name": "transferOwnership",
      "outputs": [],
      "stateMutability": "nonpayable",
      "type": "function"
    },
    {
      "inputs": [
        {
          "internalType": "uint256",
          "name": "tokenId",
          "type": "uint256"
        },
        {
          "internalType": "bytes32[]",
          "name": "newHashes",
          "type": "bytes32[]"
        }
      ],
      "name": "updateCertificateHashes",
      "outputs": [],
      "stateMutability": "nonpayable",
      "type": "function"
    },
    {
      "inputs": [
        {
          "internalType": "address",
          "name": "newRecipient",
          "type": "address"
        }
      ],
      "name": "updateFeeRecipient",
      "outputs": [],
      "stateMutability": "nonpayable",
      "type": "function"
    },
    {
      "inputs": [
        {
          "internalType": "uint256",
          "name": "newFee",
          "type": "uint256"
        }
      ],
      "name": "updateListingFee",
      "outputs": [],
      "stateMutability": "nonpayable",
      "type": "function"
    },
    {
      "inputs": [
        {
          "internalType": "uint256",
          "name": "tokenId",
          "type": "uint256"
        },
        {
          "internalType": "bytes32",
          "name": "hash",
          "type": "bytes32"
        }
      ],
      "name": "verifyCertificateHash",
      "outputs": [
        {
          "internalType": "bool",
          "name": "",
          "type": "bool"
        }
      ],
      "stateMutability": "view",
      "type": "function"
    }
  ],
  "bytecode": "0x608060405266038d7ea4c68000600d553480156200001c57600080fd5b5060405162004279380380620042798339810160408190526200003f91620001e2565b3383836000620000508382620002fe565b5060016200005f8282620002fe565b5050506001600160a01b0381166200009157604051631e4fbdf760e01b81526000600482015260240160405180910390fd5b6200009c81620000cb565b506001600855600e80546001600160a01b0319166001600160a01b039290921691909117905550620003ca9050565b600780546001600160a01b038381166001600160a01b0319831681179093556040519116919082907f8be0079c531659141344cd1fd0a4f28419497f9722a3daafe3b4186f6b6457e090600090a35050565b634e487b7160e01b600052604160045260246000fd5b600082601f8301126200014557600080fd5b81516001600160401b03808211156200016257620001626200011d565b604051601f8301601f19908116603f011681019082821181831017156200018d576200018d6200011d565b81604052838152602092508683858801011115620001aa57600080fd5b600091505b83821015620001ce5785820183015181830184015290820190620001af565b600093810190920192909252949350505050565b600080600060608486031215620001f857600080fd5b83516001600160401b03808211156200021057600080fd5b6200021e8783880162000133565b945060208601519150808211156200023557600080fd5b50620002448682870162000133565b604086015190935090506001600160a01b03811681146200026457600080fd5b809150509250925092565b600181811c908216806200028457607f821691505b602082108103620002a557634e487b7160e01b600052602260045260246000fd5b50919050565b601f821115620002f957600081815260208120601f850160051c81016020861015620002d45750805b601f850160051c820191505b81811015620002f557828155600101620002e0565b5050505b505050565b81516001600160401b038111156200031a576200031a6200011d565b62000332816200032b84546200026f565b84620002ab565b602080601f8311600181146200036a5760008415620003515750858301515b600019600386901b1c1916600185901b178555620002f5565b600085815260208120601f198616915b828110156200039b578886015182559484019460019091019084016200037a565b5085821015620003ba5787850151600019600388901b60f8161c191681555b5050505050600190811b01905550565b613e9f80620003da6000396000f3fe6080604052600436106102675760003560e01c8063899460eb11610144578063c87b56dd116100b6578063efef39a11161007a578063efef39a1146107f7578063f08b82e61461080a578063f160d3691461081f578063f2fde38b1461083f578063f79d91ae1461085f578063fc3fc4ed1461087f57600080fd5b8063c87b56dd14610751578063cf44b5d514610771578063db2e21bc14610786578063e7d716181461079b578063e985e9c5146107ae57600080fd5b8063a22cb46511610108578063a22cb4651461069a578063a271e525146106ba578063b88d4fde146106d1578063c0826c81146106f1578063c45e7bc814610711578063c55d0f561461073157600080fd5b8063899460eb146106075780638da5cb5b1461062757806395d89b411461064557806396b5a7551461065a5780639c08deb71461067a57600080fd5b80635664fce6116101dd5780636f312e64116101a15780636f312e641461053e57806370a0823114610572578063715018a61461059257806377cd22e3146105a7578063790d8596146105c75780637d07b2d2146105e757600080fd5b80635664fce614610402578063571a26a0146104225780635ba2fd94146104db5780636352211e146105085780636a1b7ecc1461052857600080fd5b806323b872dd1161022f57806323b872dd1461034a5780632a5c792a1461036a5780633f9fc7681461037f57806342842e0e146103ad57806346904840146103cd57806352860b34146103ed57600080fd5b806301ffc9a71461026c57806306fdde03146102a1578063081812fc146102c3578063095ea7b3146102fb57806317021cc31461031d575b600080fd5b34801561027857600080fd5b5061028c6102873660046133be565b6108f0565b60405190151581526020015b60405180910390f35b3480156102ad57600080fd5b506102b6610901565b604051610298919061342b565b3480156102cf57600080fd5b506102e36102de36600461343e565b610993565b6040516001600160a01b039091168152602001610298565b34801561030757600080fd5b5061031b610316366004613473565b6109bc565b005b34801561032957600080fd5b5061033d61033836600461343e565b6109cb565b604051610298919061349d565b34801561035657600080fd5b5061031b6103653660046134e1565b610a6a565b34801561037657600080fd5b5061033d610af5565b34801561038b57600080fd5b5061039f61039a366004613473565b610b4c565b604051908152602001610298565b3480156103b957600080fd5b5061031b6103c83660046134e1565b610b7d565b3480156103d957600080fd5b50600e546102e3906001600160a01b031681565b3480156103f957600080fd5b5061039f600281565b34801561040e57600080fd5b5061031b61041d3660046135e4565b610b9d565b34801561042e57600080fd5b5061049361043d36600461343e565b600b6020526000908152604090208054600182015460028301546003840154600485015460059095015493949293919290916001600160a01b0382169160ff600160a01b8204811692600160a81b909204169088565b6040805198895260208901979097529587019490945260608601929092526001600160a01b03166080850152151560a0840152151560c083015260e082015261010001610298565b3480156104e757600080fd5b506104fb6104f636600461343e565b610bfb565b6040516102989190613666565b34801561051457600080fd5b506102e361052336600461343e565b611085565b34801561053457600080fd5b5061039f600d5481565b34801561054a57600080fd5b5061055e61055936600461343e565b611090565b60405161029898979695949392919061375e565b34801561057e57600080fd5b5061039f61058d3660046137fc565b61140a565b34801561059e57600080fd5b5061031b611452565b3480156105b357600080fd5b5061033d6105c23660046137fc565b611466565b3480156105d357600080fd5b5061039f6105e236600461343e565b6114d0565b3480156105f357600080fd5b5061039f61060236600461343e565b6114f1565b34801561061357600080fd5b5061028c610622366004613817565b611501565b34801561063357600080fd5b506007546001600160a01b03166102e3565b34801561065157600080fd5b506102b66115fa565b34801561066657600080fd5b5061031b61067536600461343e565b611609565b34801561068657600080fd5b5061031b61069536600461343e565b61172a565b3480156106a657600080fd5b5061031b6106b5366004613839565b611841565b3480156106c657600080fd5b5061039f6201518081565b3480156106dd57600080fd5b5061031b6106ec3660046138cd565b61184c565b3480156106fd57600080fd5b5061033d61070c366004613817565b611864565b34801561071d57600080fd5b5061028c61072c36600461343e565b611991565b34801561073d57600080fd5b5061039f61074c36600461343e565b6119db565b34801561075d57600080fd5b506102b661076c36600461343e565b611b3d565b34801561077d57600080fd5b5061033d611b48565b34801561079257600080fd5b5061031b611b9e565b61039f6107a9366004613969565b611c95565b3480156107ba57600080fd5b5061028c6107c9366004613ab3565b6001600160a01b03918216600090815260056020908152604080832093909416825291909152205460ff1690565b61031b61080536600461343e565b612258565b34801561081657600080fd5b5060095461039f565b34801561082b57600080fd5b5061031b61083a3660046137fc565b6125f8565b34801561084b57600080fd5b5061031b61085a3660046137fc565b6126a3565b34801561086b57600080fd5b5061031b61087a36600461343e565b6126de565b34801561088b57600080fd5b5061089f61089a36600461343e565b61271b565b60408051998a5260208a019890985296880195909552606087019390935260808601919091526001600160a01b031660a0850152151560c0840152151560e083015261010082015261012001610298565b60006108fb8261284e565b92915050565b60606000805461091090613ae6565b80601f016020809104026020016040519081016040528092919081815260200182805461093c90613ae6565b80156109895780601f1061095e57610100808354040283529160200191610989565b820191906000526020600020905b81548152906001019060200180831161096c57829003601f168201915b5050505050905090565b600061099e82612873565b506000828152600460205260409020546001600160a01b03166108fb565b6109c78282336128ac565b5050565b606060006109d883611085565b6001600160a01b031603610a075760405162461bcd60e51b81526004016109fe90613b1a565b60405180910390fd5b6000828152600a602090815260409182902060040180548351818402810184019094528084529091830182828015610a5e57602002820191906000526020600020905b815481526020019060010190808311610a4a575b50505050509050919050565b6001600160a01b038216610a9457604051633250574960e11b8152600060048201526024016109fe565b6000610aa18383336128b9565b9050836001600160a01b0316816001600160a01b031614610aef576040516364283d7b60e01b81526001600160a01b03808616600483015260248201849052821660448201526064016109fe565b50505050565b6060600f80548060200260200160405190810160405280929190818152602001828054801561098957602002820191906000526020600020905b815481526020019060010190808311610b2f575050505050905090565b600c6020528160005260406000208181548110610b6857600080fd5b90600052602060002001600091509150505481565b610b988383836040518060200160405280600081525061184c565b505050565b610ba5612991565b6000610bb083611085565b6001600160a01b031603610bd65760405162461bcd60e51b81526004016109fe90613b1a565b6000828152600a602090815260409091208251610b98926004909201918401906132f4565b610c53604051806101200160405280606081526020016060815260200160608152602001606081526020016060815260200160608152602001606081526020016000815260200160006001600160a01b031681525090565b6000610c5e83611085565b6001600160a01b031603610c845760405162461bcd60e51b81526004016109fe90613b1a565b6000828152600a60205260409081902081516101208101909252805482908290610cad90613ae6565b80601f0160208091040260200160405190810160405280929190818152602001828054610cd990613ae6565b8015610d265780601f10610cfb57610100808354040283529160200191610d26565b820191906000526020600020905b815481529060010190602001808311610d0957829003601f168201915b50505050508152602001600182018054610d3f90613ae6565b80601f0160208091040260200160405190810160405280929190818152602001828054610d6b90613ae6565b8015610db85780601f10610d8d57610100808354040283529160200191610db8565b820191906000526020600020905b815481529060010190602001808311610d9b57829003601f168201915b50505050508152602001600282018054610dd190613ae6565b80601f0160208091040260200160405190810160405280929190818152602001828054610dfd90613ae6565b8015610e4a5780601f10610e1f57610100808354040283529160200191610e4a565b820191906000526020600020905b815481529060010190602001808311610e2d57829003601f168201915b50505050508152602001600382018054610e6390613ae6565b80601f0160208091040260200160405190810160405280929190818152602001828054610e8f90613ae6565b8015610edc5780601f10610eb157610100808354040283529160200191610edc565b820191906000526020600020905b815481529060010190602001808311610ebf57829003601f168201915b5050505050815260200160048201805480602002602001604051908101604052809291908181526020018280548015610f3457602002820191906000526020600020905b815481526020019060010190808311610f20575b50505050508152602001600582018054610f4d90613ae6565b80601f0160208091040260200160405190810160405280929190818152602001828054610f7990613ae6565b8015610fc65780601f10610f9b57610100808354040283529160200191610fc6565b820191906000526020600020905b815481529060010190602001808311610fa957829003601f168201915b50505050508152602001600682018054610fdf90613ae6565b80601f016020809104026020016040519081016040528092919081815260200182805461100b90613ae6565b80156110585780601f1061102d57610100808354040283529160200191611058565b820191906000526020600020905b81548152906001019060200180831161103b57829003601f168201915b5050509183525050600782015460208201526008909101546001600160a01b031660409091015292915050565b60006108fb82612873565b600a602052600090815260409020805481906110ab90613ae6565b80601f01602080910402602001604051908101604052809291908181526020018280546110d790613ae6565b80156111245780601f106110f957610100808354040283529160200191611124565b820191906000526020600020905b81548152906001019060200180831161110757829003601f168201915b50505050509080600101805461113990613ae6565b80601f016020809104026020016040519081016040528092919081815260200182805461116590613ae6565b80156111b25780601f10611187576101008083540402835291602001916111b2565b820191906000526020600020905b81548152906001019060200180831161119557829003601f168201915b5050505050908060020180546111c790613ae6565b80601f01602080910402602001604051908101604052809291908181526020018280546111f390613ae6565b80156112405780601f1061121557610100808354040283529160200191611240565b820191906000526020600020905b81548152906001019060200180831161122357829003601f168201915b50505050509080600301805461125590613ae6565b80601f016020809104026020016040519081016040528092919081815260200182805461128190613ae6565b80156112ce5780601f106112a3576101008083540402835291602001916112ce565b820191906000526020600020905b8154815290600101906020018083116112b157829003601f168201915b5050505050908060050180546112e390613ae6565b80601f016020809104026020016040519081016040528092919081815260200182805461130f90613ae6565b801561135c5780601f106113315761010080835404028352916020019161135c565b820191906000526020600020905b81548152906001019060200180831161133f57829003601f168201915b50505050509080600601805461137190613ae6565b80601f016020809104026020016040519081016040528092919081815260200182805461139d90613ae6565b80156113ea5780601f106113bf576101008083540402835291602001916113ea565b820191906000526020600020905b8154815290600101906020018083116113cd57829003601f168201915b5050505060078301546008909301549192916001600160a01b0316905088565b60006001600160a01b038216611436576040516322718ad960e21b8152600060048201526024016109fe565b506001600160a01b031660009081526003602052604090205490565b61145a612991565b61146460006129be565b565b6001600160a01b0381166000908152600c6020908152604091829020805483518184028101840190945280845260609392830182828015610a5e5760200282019190600052602060002090815481526020019060010190808311610a4a5750505050509050919050565b601081815481106114e057600080fd5b600091825260209091200154905081565b600f81815481106114e057600080fd5b60008061150d84611085565b6001600160a01b0316036115335760405162461bcd60e51b81526004016109fe90613b1a565b6000838152600a602090815260408083206004018054825181850281018501909352808352919290919083018282801561158c57602002820191906000526020600020905b815481526020019060010190808311611578575b5050505050905080516000036115a65760009150506108fb565b60005b81518110156115ef57838282815181106115c5576115c5613b48565b6020026020010151036115dd576001925050506108fb565b806115e781613b74565b9150506115a9565b506000949350505050565b60606001805461091090613ae6565b6000818152600b602052604090206004015481906001600160a01b03166116425760405162461bcd60e51b81526004016109fe90613b8d565b6000828152600b602052604090206004015482906001600160a01b0316331461167d5760405162461bcd60e51b81526004016109fe90613bbd565b6000838152600b602052604090206004810154600160a01b900460ff1680156116b257506004810154600160a81b900460ff16155b6116ce5760405162461bcd60e51b81526004016109fe90613bff565b60048101805461ffff60a01b1916600160a81b1790556116ed84612a10565b604051428152339085907fc326dcfb5d4e924f5e3e717c0f667b0eecb5abb73fc0b33236b6107c1fd48a579060200160405180910390a350505050565b6000818152600b602052604090206004015481906001600160a01b03166117635760405162461bcd60e51b81526004016109fe90613b8d565b6000828152600b602052604090206004015482906001600160a01b0316331461179e5760405162461bcd60e51b81526004016109fe90613bbd565b6000838152600b60205260409020600381015442116117ff5760405162461bcd60e51b815260206004820152601760248201527f41756374696f6e20686173206e6f74206578706972656400000000000000000060448201526064016109fe565b6004810154600160a01b900460ff1680156116b257506004810154600160a81b900460ff16156116ce5760405162461bcd60e51b81526004016109fe90613bff565b6109c7338383612ac8565b611857848484610a6a565b610aef3385858585612b67565b60105460609083106118b85760405162461bcd60e51b815260206004820152601b60248201527f4f66667365742065786365656473206172726179206c656e677468000000000060448201526064016109fe565b60006118c48385613c2e565b6010549091508111156118d657506010545b60006118e28583613c41565b67ffffffffffffffff8111156118fa576118fa61351d565b604051908082528060200260200182016040528015611923578160200160208202803683370190505b509050845b82811015611988576010818154811061194357611943613b48565b906000526020600020015482878361195b9190613c41565b8151811061196b5761196b613b48565b60209081029190910101528061198081613b74565b915050611928565b50949350505050565b60008061199d83611085565b6001600160a01b0316036119c35760405162461bcd60e51b81526004016109fe90613b1a565b506000908152600a6020526040902060040154151590565b6000818152600b602052604081206004015482906001600160a01b0316611a145760405162461bcd60e51b81526004016109fe90613b8d565b6000838152600b6020908152604091829020825161010081018452815481526001820154928101929092526002810154928201929092526003820154606082015260048201546001600160a01b038116608083015260ff600160a01b82048116151560a0840152600160a81b90910416151560c0820181905260059092015460e08201529080611aa657508060a00151155b15611ab5576000925050611b37565b80606001514210611acb57602001519150611b37565b80604001514211611ade57519150611b37565b6000816040015142611af09190613c41565b90506000620151808284602001518560000151611b0d9190613c41565b611b179190613c54565b611b219190613c6b565b8351909150611b31908290613c41565b94505050505b50919050565b60606108fb82612c92565b606060108054806020026020016040519081016040528092919081815260200182805480156109895760200282019190600052602060002090815481526020019060010190808311610b2f575050505050905090565b611ba6612991565b4780611bed5760405162461bcd60e51b81526020600482015260166024820152754e6f2062616c616e636520746f20776974686472617760501b60448201526064016109fe565b6000611c016007546001600160a01b031690565b6001600160a01b03168260405160006040518083038185875af1925050503d8060008114611c4b576040519150601f19603f3d011682016040523d82523d6000602084013e611c50565b606091505b50509050806109c75760405162461bcd60e51b815260206004820152601160248201527015da5d1a191c985dd85b0819985a5b1959607a1b60448201526064016109fe565b6000611c9f612da3565b600d54341015611cf15760405162461bcd60e51b815260206004820152601860248201527f496e73756666696369656e74206c697374696e6720666565000000000000000060448201526064016109fe565b60008211611d4f5760405162461bcd60e51b815260206004820152602560248201527f5374617274696e67207072696365206d75737420626520677265617465722074604482015264068616e20360dc1b60648201526084016109fe565b60008a5111611d985760405162461bcd60e51b8152602060048201526015602482015274141c9bd91d58dd081b985b59481c995c5d5a5c9959605a1b60448201526064016109fe565b50600980549081906000611dab83613b74565b9190505550611dba3382612dcd565b611dc48184612de7565b60408051610120810182528b815260208082018c90528183018b9052606082018a90526080820189905260a0820188905260c082018790524260e0830152336101008301526000848152600a9091529190912081518190611e259082613cd3565b5060208201516001820190611e3a9082613cd3565b5060408201516002820190611e4f9082613cd3565b5060608201516003820190611e649082613cd3565b5060808201518051611e809160048401916020909101906132f4565b5060a08201516005820190611e959082613cd3565b5060c08201516006820190611eaa9082613cd3565b5060e0820151600782015561010090910151600890910180546001600160a01b0319166001600160a01b039092169190911790556000611eeb600284613c6b565b9050426000611efd6201518083613c2e565b9050604051806101000160405280868152602001848152602001838152602001828152602001336001600160a01b0316815260200160011515815260200160001515815260200142815250600b60008681526020019081526020016000206000820151816000015560208201518160010155604082015181600201556060820151816003015560808201518160040160006101000a8154816001600160a01b0302191690836001600160a01b0316021790555060a08201518160040160146101000a81548160ff02191690831515021790555060c08201518160040160156101000a81548160ff02191690831515021790555060e08201518160050155905050600f8490806001815401808255809150506001900390600052602060002001600090919091909150556010849080600181540180825580915050600190039060005260206000200160009091909190915055600c6000336001600160a01b03166001600160a01b031681526020019081526020016000208490806001815401808255809150506001900390600052602060002001600090919091909150556000600d54111561214357600e54600d546040516000926001600160a01b031691908381818185875af1925050503d80600081146120f5576040519150601f19603f3d011682016040523d82523d6000602084013e6120fa565b606091505b50509050806121415760405162461bcd60e51b8152602060048201526013602482015272119959481d1c985b9cd9995c8819985a5b1959606a1b60448201526064016109fe565b505b600d543411156121f4576000600d543461215d9190613c41565b604051909150600090339083908381818185875af1925050503d80600081146121a2576040519150601f19603f3d011682016040523d82523d6000602084013e6121a7565b606091505b50509050806121f15760405162461bcd60e51b81526020600482015260166024820152751499599d5b99081d1c985b9cd9995c8819985a5b195960521b60448201526064016109fe565b50505b336001600160a01b0316847f2db7998c5882ea3b6dff678bda95adba7e239e820708d9359e54d64bd81b00b88f88878787604051612236959493929190613d93565b60405180910390a350505061224b6001600855565b9998505050505050505050565b612260612da3565b6000818152600b6020908152604091829020825161010081018452815481526001820154928101929092526002810154928201929092526003820154606082015260048201546001600160a01b038116608083015260ff600160a01b8204811615801560a08501819052600160a81b909304909116151560c084015260059093015460e083015283926122f557508060c00151155b6123115760405162461bcd60e51b81526004016109fe90613bff565b80604001514210156123655760405162461bcd60e51b815260206004820152601760248201527f41756374696f6e20686173206e6f74207374617274656400000000000000000060448201526064016109fe565b80606001514211156123b95760405162461bcd60e51b815260206004820152601860248201527f41756374696f6e2074696d65206861732065787069726564000000000000000060448201526064016109fe565b60006123c4846119db565b90508034101561240d5760405162461bcd60e51b8152602060048201526014602482015273125b9cdd59999a58da595b9d081c185e5b595b9d60621b60448201526064016109fe565b6000848152600b6020526040902060048101805461ffff60a01b198116600160a81b179091556001600160a01b031661244586612a10565b612450813388612e37565b6000816001600160a01b03168460405160006040518083038185875af1925050503d806000811461249d576040519150601f19603f3d011682016040523d82523d6000602084013e6124a2565b606091505b50509050806124f35760405162461bcd60e51b815260206004820152601760248201527f5061796d656e74207472616e73666572206661696c656400000000000000000060448201526064016109fe565b8334111561259e5760006125078534613c41565b604051909150600090339083908381818185875af1925050503d806000811461254c576040519150601f19603f3d011682016040523d82523d6000602084013e612551565b606091505b505090508061259b5760405162461bcd60e51b81526020600482015260166024820152751499599d5b99081d1c985b9cd9995c8819985a5b195960521b60448201526064016109fe565b50505b604080518581524260208201526001600160a01b0384169133918a917f97c2259416e396e22501324bcc075298bbdd44aeb54f8fcd99296d736ac3ee93910160405180910390a45050505050506125f56001600855565b50565b612600612991565b6001600160a01b03811661264e5760405162461bcd60e51b8152602060048201526015602482015274125b9d985b1a5908199959481c9958da5c1a595b9d605a1b60448201526064016109fe565b600e80546001600160a01b0319166001600160a01b0383169081179091556040519081527f7a7b5a0a132f9e0581eb8527f66eae9ee89c2a3e79d4ac7e41a1f1f4d48a7fc2906020015b60405180910390a150565b6126ab612991565b6001600160a01b0381166126d557604051631e4fbdf760e01b8152600060048201526024016109fe565b6125f5816129be565b6126e6612991565b600d8190556040518181527f5fb4654f1efe30c6141eaa6855ffcb27e0b361d899b05e21b1a4d0b3e71e14db90602001612698565b6000818152600b6020526040812060040154819081908190819081908190819081908a906001600160a01b03166127645760405162461bcd60e51b81526004016109fe90613b8d565b60008b8152600b6020908152604091829020825161010081018452815481526001820154928101929092526002810154928201929092526003820154606082015260048201546001600160a01b038116608083015260ff600160a01b82048116151560a0840152600160a81b90910416151560c082015260059091015460e08201526127ef8c6119db565b8151602083015160408401516060850151608086015160a087015160c088015142841161281d57600061282d565b42896060015161282d9190613c41565b9a509a509a509a509a509a509a509a509a5050509193959799909294969850565b60006001600160e01b03198216632483248360e11b14806108fb57506108fb82612ee7565b6000818152600260205260408120546001600160a01b0316806108fb57604051637e27328960e01b8152600481018490526024016109fe565b610b988383836001612f37565b60006128c48361305c565b6000838152600a60205260408120906128dd828261333f565b6128eb60018301600061333f565b6128f960028301600061333f565b61290760038301600061333f565b612915600483016000613379565b61292360058301600061333f565b61293160068301600061333f565b50600060078201819055600890910180546001600160a01b0319169055928352600b602052604083208381556001810184905560028101849055600381018490556004810180546001600160b01b03191690556005019290925550919050565b6007546001600160a01b031633146114645760405163118cdaa760e01b81523360048201526024016109fe565b600780546001600160a01b038381166001600160a01b0319831681179093556040519116919082907f8be0079c531659141344cd1fd0a4f28419497f9722a3daafe3b4186f6b6457e090600090a35050565b60005b6010548110156109c7578160108281548110612a3157612a31613b48565b906000526020600020015403612ab65760108054612a5190600190613c41565b81548110612a6157612a61613b48565b906000526020600020015460108281548110612a7f57612a7f613b48565b6000918252602090912001556010805480612a9c57612a9c613dca565b600190038181906000526020600020016000905590555050565b80612ac081613b74565b915050612a13565b6001600160a01b038216612afa57604051630b61174360e31b81526001600160a01b03831660048201526024016109fe565b6001600160a01b03838116600081815260056020908152604080832094871680845294825291829020805460ff191686151590811790915591519182527f17307eab39ab6107e8899845ad3d59bd9653f200f220920489ca2b5937696c31910160405180910390a3505050565b6001600160a01b0383163b15612c8b57604051630a85bd0160e11b81526001600160a01b0384169063150b7a0290612ba9908890889087908790600401613de0565b6020604051808303816000875af1925050508015612be4575060408051601f3d908101601f19168201909252612be191810190613e1d565b60015b612c4d573d808015612c12576040519150601f19603f3d011682016040523d82523d6000602084013e612c17565b606091505b508051600003612c4557604051633250574960e11b81526001600160a01b03851660048201526024016109fe565b805181602001fd5b6001600160e01b03198116630a85bd0160e11b14612c8957604051633250574960e11b81526001600160a01b03851660048201526024016109fe565b505b5050505050565b6060612c9d82612873565b5060008281526006602052604081208054612cb790613ae6565b80601f0160208091040260200160405190810160405280929190818152602001828054612ce390613ae6565b8015612d305780601f10612d0557610100808354040283529160200191612d30565b820191906000526020600020905b815481529060010190602001808311612d1357829003601f168201915b505050505090506000612d4e60408051602081019091526000815290565b90508051600003612d60575092915050565b815115612d92578082604051602001612d7a929190613e3a565b60405160208183030381529060405292505050919050565b612d9b84613097565b949350505050565b600260085403612dc657604051633ee5aeb560e01b815260040160405180910390fd5b6002600855565b6109c782826040518060200160405280600081525061310c565b6000828152600660205260409020612dff8282613cd3565b506040518281527ff8e1a15aba9398e019f0b49df1a4fde98ee17ae345cb5f6b5e2c27f5033e8ce79060200160405180910390a15050565b6001600160a01b038216612e6157604051633250574960e11b8152600060048201526024016109fe565b6000612e6f838360006128b9565b90506001600160a01b038116612e9b57604051637e27328960e01b8152600481018390526024016109fe565b836001600160a01b0316816001600160a01b031614610aef576040516364283d7b60e01b81526001600160a01b03808616600483015260248201849052821660448201526064016109fe565b60006001600160e01b031982166380ac58cd60e01b1480612f1857506001600160e01b03198216635b5e139f60e01b145b806108fb57506301ffc9a760e01b6001600160e01b03198316146108fb565b8080612f4b57506001600160a01b03821615155b1561302c576000612f5b84612873565b90506001600160a01b03831615801590612f875750826001600160a01b0316816001600160a01b031614155b8015612fb957506001600160a01b0380821660009081526005602090815260408083209387168352929052205460ff16155b15612fe25760405163a9fbf51f60e01b81526001600160a01b03841660048201526024016109fe565b811561302a5783856001600160a01b0316826001600160a01b03167f8c5be1e5ebec7d5bd14f71427d1e84f3dd0314c0f7b2291e5b200ac8c7c3b92560405160405180910390a45b505b5050600090815260046020526040902080546001600160a01b0319166001600160a01b0392909216919091179055565b600061306b60008360006128b9565b90506001600160a01b0381166109c757604051637e27328960e01b8152600481018390526024016109fe565b60606130a282612873565b5060006130ba60408051602081019091526000815290565b905060008151116130da5760405180602001604052806000815250613105565b806130e484613124565b6040516020016130f5929190613e3a565b6040516020818303038152906040525b9392505050565b61311683836131b7565b610b98336000858585612b67565b606060006131318361321c565b600101905060008167ffffffffffffffff8111156131515761315161351d565b6040519080825280601f01601f19166020018201604052801561317b576020820181803683370190505b5090508181016020015b600019016f181899199a1a9b1b9c1cb0b131b232b360811b600a86061a8153600a850494508461318557509392505050565b6001600160a01b0382166131e157604051633250574960e11b8152600060048201526024016109fe565b60006131ef838360006128b9565b90506001600160a01b03811615610b98576040516339e3563760e11b8152600060048201526024016109fe565b60008072184f03e93ff9f4daa797ed6e38ed64bf6a1f0160401b831061325b5772184f03e93ff9f4daa797ed6e38ed64bf6a1f0160401b830492506040015b6d04ee2d6d415b85acef81000000008310613287576d04ee2d6d415b85acef8100000000830492506020015b662386f26fc1000083106132a557662386f26fc10000830492506010015b6305f5e10083106132bd576305f5e100830492506008015b61271083106132d157612710830492506004015b606483106132e3576064830492506002015b600a83106108fb5760010192915050565b82805482825590600052602060002090810192821561332f579160200282015b8281111561332f578251825591602001919060010190613314565b5061333b929150613393565b5090565b50805461334b90613ae6565b6000825580601f1061335b575050565b601f0160209004906000526020600020908101906125f59190613393565b50805460008255906000526020600020908101906125f591905b5b8082111561333b5760008155600101613394565b6001600160e01b0319811681146125f557600080fd5b6000602082840312156133d057600080fd5b8135613105816133a8565b60005b838110156133f65781810151838201526020016133de565b50506000910152565b600081518084526134178160208601602086016133db565b601f01601f19169290920160200192915050565b60208152600061310560208301846133ff565b60006020828403121561345057600080fd5b5035919050565b80356001600160a01b038116811461346e57600080fd5b919050565b6000806040838503121561348657600080fd5b61348f83613457565b946020939093013593505050565b6020808252825182820181905260009190848201906040850190845b818110156134d5578351835292840192918401916001016134b9565b50909695505050505050565b6000806000606084860312156134f657600080fd5b6134ff84613457565b925061350d60208501613457565b9150604084013590509250925092565b634e487b7160e01b600052604160045260246000fd5b604051601f8201601f1916810167ffffffffffffffff8111828210171561355c5761355c61351d565b604052919050565b600082601f83011261357557600080fd5b8135602067ffffffffffffffff8211156135915761359161351d565b8160051b6135a0828201613533565b92835284810182019282810190878511156135ba57600080fd5b83870192505b848310156135d9578235825291830191908301906135c0565b979650505050505050565b600080604083850312156135f757600080fd5b82359150602083013567ffffffffffffffff81111561361557600080fd5b61362185828601613564565b9150509250929050565b600081518084526020808501945080840160005b8381101561365b5781518752958201959082019060010161363f565b509495945050505050565b60208152600082516101208060208501526136856101408501836133ff565b91506020850151601f19808685030160408701526136a384836133ff565b935060408701519150808685030160608701526136c084836133ff565b935060608701519150808685030160808701526136dd84836133ff565b935060808701519150808685030160a08701526136fa848361362b565b935060a08701519150808685030160c087015261371784836133ff565b935060c08701519150808685030160e08701525061373583826133ff565b60e087015161010087810191909152909601516001600160a01b03169190940152509192915050565b60006101008083526137728184018c6133ff565b90508281036020840152613786818b6133ff565b9050828103604084015261379a818a6133ff565b905082810360608401526137ae81896133ff565b905082810360808401526137c281886133ff565b905082810360a08401526137d681876133ff565b60c084019590955250506001600160a01b039190911660e0909101529695505050505050565b60006020828403121561380e57600080fd5b61310582613457565b6000806040838503121561382a57600080fd5b50508035926020909101359150565b6000806040838503121561384c57600080fd5b61385583613457565b91506020830135801515811461386a57600080fd5b809150509250929050565b600067ffffffffffffffff83111561388f5761388f61351d565b6138a2601f8401601f1916602001613533565b90508281528383830111156138b657600080fd5b828260208301376000602084830101529392505050565b600080600080608085870312156138e357600080fd5b6138ec85613457565b93506138fa60208601613457565b925060408501359150606085013567ffffffffffffffff81111561391d57600080fd5b8501601f8101871361392e57600080fd5b61393d87823560208401613875565b91505092959194509250565b600082601f83011261395a57600080fd5b61310583833560208501613875565b60008060008060008060008060006101208a8c03121561398857600080fd5b893567ffffffffffffffff808211156139a057600080fd5b6139ac8d838e01613949565b9a5060208c01359150808211156139c257600080fd5b6139ce8d838e01613949565b995060408c01359150808211156139e457600080fd5b6139f08d838e01613949565b985060608c0135915080821115613a0657600080fd5b613a128d838e01613949565b975060808c0135915080821115613a2857600080fd5b613a348d838e01613564565b965060a08c0135915080821115613a4a57600080fd5b613a568d838e01613949565b955060c08c0135915080821115613a6c57600080fd5b613a788d838e01613949565b945060e08c0135915080821115613a8e57600080fd5b50613a9b8c828d01613949565b9250506101008a013590509295985092959850929598565b60008060408385031215613ac657600080fd5b613acf83613457565b9150613add60208401613457565b90509250929050565b600181811c90821680613afa57607f821691505b602082108103611b3757634e487b7160e01b600052602260045260246000fd5b602080825260149082015273151bdad95b88191bd95cc81b9bdd08195e1a5cdd60621b604082015260600190565b634e487b7160e01b600052603260045260246000fd5b634e487b7160e01b600052601160045260246000fd5b600060018201613b8657613b86613b5e565b5060010190565b602080825260169082015275105d58dd1a5bdb88191bd95cc81b9bdd08195e1a5cdd60521b604082015260600190565b60208082526022908201527f4f6e6c792073656c6c65722063616e2063616c6c20746869732066756e63746960408201526137b760f11b606082015260800190565b60208082526015908201527441756374696f6e206973206e6f742061637469766560581b604082015260600190565b808201808211156108fb576108fb613b5e565b818103818111156108fb576108fb613b5e565b80820281158282048414176108fb576108fb613b5e565b600082613c8857634e487b7160e01b600052601260045260246000fd5b500490565b601f821115610b9857600081815260208120601f850160051c81016020861015613cb45750805b601f850160051c820191505b81811015612c8957828155600101613cc0565b815167ffffffffffffffff811115613ced57613ced61351d565b613d0181613cfb8454613ae6565b84613c8d565b602080601f831160018114613d365760008415613d1e5750858301515b600019600386901b1c1916600185901b178555612c89565b600085815260208120601f198616915b82811015613d6557888601518255948401946001909101908401613d46565b5085821015613d835787850151600019600388901b60f8161c191681555b5050505050600190811b01905550565b60a081526000613da660a08301886133ff565b90508560208301528460408301528360608301528260808301529695505050505050565b634e487b7160e01b600052603160045260246000fd5b6001600160a01b0385811682528416602082015260408101839052608060608201819052600090613e13908301846133ff565b9695505050505050565b600060208284031215613e2f57600080fd5b8151613105816133a8565b60008351613e4c8184602088016133db565b835190830190613e608183602088016133db565b0194935050505056fea26469706673582212205aed39d14c04e832f2a4596e24e7f9e102846379abcb21b6f4d0671ba353a25064736f6c63430008140033",
  "linkReferences": {},
  "deployedLinkReferences": {}
}